{
  "address": "0x734e16F1D41e0AE36D157BeC571FA67A7d8B84Fd",
  "abi": [
    {
      "inputs": [
        {
          "internalType": "string",
          "name": "_name",
          "type": "string"
        },
        {
          "internalType": "string",
          "name": "_symbol",
          "type": "string"
        },
        {
          "internalType": "uint256",
          "name": "_initialSupply",
          "type": "uint256"
        },
        {
          "internalType": "address",
          "name": "_initialOwner",
          "type": "address"
        },
        {
          "internalType": "address",
          "name": "_gateway",
          "type": "address"
        },
        {
          "internalType": "address",
          "name": "_gasService",
          "type": "address"
        }
      ],
      "stateMutability": "nonpayable",
      "type": "constructor"
    },
    {
      "inputs": [],
      "name": "ECDSAInvalidSignature",
      "type": "error"
    },
    {
      "inputs": [
        {
          "internalType": "uint256",
          "name": "length",
          "type": "uint256"
        }
      ],
      "name": "ECDSAInvalidSignatureLength",
      "type": "error"
    },
    {
      "inputs": [
        {
          "internalType": "bytes32",
          "name": "s",
          "type": "bytes32"
        }
      ],
      "name": "ECDSAInvalidSignatureS",
      "type": "error"
    },
    {
      "inputs": [
        {
          "internalType": "address",
          "name": "spender",
          "type": "address"
        },
        {
          "internalType": "uint256",
          "name": "allowance",
          "type": "uint256"
        },
        {
          "internalType": "uint256",
          "name": "needed",
          "type": "uint256"
        }
      ],
      "name": "ERC20InsufficientAllowance",
      "type": "error"
    },
    {
      "inputs": [
        {
          "internalType": "address",
          "name": "sender",
          "type": "address"
        },
        {
          "internalType": "uint256",
          "name": "balance",
          "type": "uint256"
        },
        {
          "internalType": "uint256",
          "name": "needed",
          "type": "uint256"
        }
      ],
      "name": "ERC20InsufficientBalance",
      "type": "error"
    },
    {
      "inputs": [
        {
          "internalType": "address",
          "name": "approver",
          "type": "address"
        }
      ],
      "name": "ERC20InvalidApprover",
      "type": "error"
    },
    {
      "inputs": [
        {
          "internalType": "address",
          "name": "receiver",
          "type": "address"
        }
      ],
      "name": "ERC20InvalidReceiver",
      "type": "error"
    },
    {
      "inputs": [
        {
          "internalType": "address",
          "name": "sender",
          "type": "address"
        }
      ],
      "name": "ERC20InvalidSender",
      "type": "error"
    },
    {
      "inputs": [
        {
          "internalType": "address",
          "name": "spender",
          "type": "address"
        }
      ],
      "name": "ERC20InvalidSpender",
      "type": "error"
    },
    {
      "inputs": [
        {
          "internalType": "uint256",
          "name": "deadline",
          "type": "uint256"
        }
      ],
      "name": "ERC2612ExpiredSignature",
      "type": "error"
    },
    {
      "inputs": [
        {
          "internalType": "address",
          "name": "signer",
          "type": "address"
        },
        {
          "internalType": "address",
          "name": "owner",
          "type": "address"
        }
      ],
      "name": "ERC2612InvalidSigner",
      "type": "error"
    },
    {
      "inputs": [
        {
          "internalType": "address",
          "name": "account",
          "type": "address"
        },
        {
          "internalType": "uint256",
          "name": "currentNonce",
          "type": "uint256"
        }
      ],
      "name": "InvalidAccountNonce",
      "type": "error"
    },
    {
      "inputs": [],
      "name": "InvalidAddress",
      "type": "error"
    },
    {
      "inputs": [],
      "name": "InvalidShortString",
      "type": "error"
    },
    {
      "inputs": [],
      "name": "NotApprovedByGateway",
      "type": "error"
    },
    {
      "inputs": [
        {
          "internalType": "address",
          "name": "owner",
          "type": "address"
        }
      ],
      "name": "OwnableInvalidOwner",
      "type": "error"
    },
    {
      "inputs": [
        {
          "internalType": "address",
          "name": "account",
          "type": "address"
        }
      ],
      "name": "OwnableUnauthorizedAccount",
      "type": "error"
    },
    {
      "inputs": [
        {
          "internalType": "string",
          "name": "str",
          "type": "string"
        }
      ],
      "name": "StringTooLong",
      "type": "error"
    },
    {
      "anonymous": false,
      "inputs": [
        {
          "indexed": true,
          "internalType": "address",
          "name": "owner",
          "type": "address"
        },
        {
          "indexed": true,
          "internalType": "address",
          "name": "spender",
          "type": "address"
        },
        {
          "indexed": false,
          "internalType": "uint256",
          "name": "value",
          "type": "uint256"
        }
      ],
      "name": "Approval",
      "type": "event"
    },
    {
      "anonymous": false,
      "inputs": [
        {
          "indexed": false,
          "internalType": "string",
          "name": "sourceChain",
          "type": "string"
        },
        {
          "indexed": false,
          "internalType": "string",
          "name": "sourceAddress",
          "type": "string"
        },
        {
          "indexed": false,
          "internalType": "address",
          "name": "recipient",
          "type": "address"
        },
        {
          "indexed": false,
          "internalType": "uint256",
          "name": "amount",
          "type": "uint256"
        }
      ],
      "name": "CrossChainTransferExecuted",
      "type": "event"
    },
    {
      "anonymous": false,
      "inputs": [
        {
          "indexed": true,
          "internalType": "address",
          "name": "sender",
          "type": "address"
        },
        {
          "indexed": false,
          "internalType": "string",
          "name": "destinationChain",
          "type": "string"
        },
        {
          "indexed": false,
          "internalType": "address",
          "name": "destinationAddress",
          "type": "address"
        },
        {
          "indexed": false,
          "internalType": "uint256",
          "name": "amount",
          "type": "uint256"
        }
      ],
      "name": "CrossChainTransferInitiated",
      "type": "event"
    },
    {
      "anonymous": false,
      "inputs": [],
      "name": "EIP712DomainChanged",
      "type": "event"
    },
    {
      "anonymous": false,
      "inputs": [
        {
          "indexed": true,
          "internalType": "address",
          "name": "previousOwner",
          "type": "address"
        },
        {
          "indexed": true,
          "internalType": "address",
          "name": "newOwner",
          "type": "address"
        }
      ],
      "name": "OwnershipTransferred",
      "type": "event"
    },
    {
      "anonymous": false,
      "inputs": [
        {
          "indexed": true,
          "internalType": "address",
          "name": "from",
          "type": "address"
        },
        {
          "indexed": true,
          "internalType": "address",
          "name": "to",
          "type": "address"
        },
        {
          "indexed": false,
          "internalType": "uint256",
          "name": "value",
          "type": "uint256"
        }
      ],
      "name": "Transfer",
      "type": "event"
    },
    {
      "inputs": [],
      "name": "DOMAIN_SEPARATOR",
      "outputs": [
        {
          "internalType": "bytes32",
          "name": "",
          "type": "bytes32"
        }
      ],
      "stateMutability": "view",
      "type": "function"
    },
    {
      "inputs": [
        {
          "internalType": "address",
          "name": "owner",
          "type": "address"
        },
        {
          "internalType": "address",
          "name": "spender",
          "type": "address"
        }
      ],
      "name": "allowance",
      "outputs": [
        {
          "internalType": "uint256",
          "name": "",
          "type": "uint256"
        }
      ],
      "stateMutability": "view",
      "type": "function"
    },
    {
      "inputs": [
        {
          "internalType": "address",
          "name": "spender",
          "type": "address"
        },
        {
          "internalType": "uint256",
          "name": "value",
          "type": "uint256"
        }
      ],
      "name": "approve",
      "outputs": [
        {
          "internalType": "bool",
          "name": "",
          "type": "bool"
        }
      ],
      "stateMutability": "nonpayable",
      "type": "function"
    },
    {
      "inputs": [
        {
          "internalType": "address",
          "name": "account",
          "type": "address"
        }
      ],
      "name": "balanceOf",
      "outputs": [
        {
          "internalType": "uint256",
          "name": "",
          "type": "uint256"
        }
      ],
      "stateMutability": "view",
      "type": "function"
    },
    {
      "inputs": [
        {
          "internalType": "uint256",
          "name": "value",
          "type": "uint256"
        }
      ],
      "name": "burn",
      "outputs": [],
      "stateMutability": "nonpayable",
      "type": "function"
    },
    {
      "inputs": [
        {
          "internalType": "address",
          "name": "account",
          "type": "address"
        },
        {
          "internalType": "uint256",
          "name": "value",
          "type": "uint256"
        }
      ],
      "name": "burnFrom",
      "outputs": [],
      "stateMutability": "nonpayable",
      "type": "function"
    },
    {
      "inputs": [],
      "name": "decimals",
      "outputs": [
        {
          "internalType": "uint8",
          "name": "",
          "type": "uint8"
        }
      ],
      "stateMutability": "view",
      "type": "function"
    },
    {
      "inputs": [],
      "name": "eip712Domain",
      "outputs": [
        {
          "internalType": "bytes1",
          "name": "fields",
          "type": "bytes1"
        },
        {
          "internalType": "string",
          "name": "name",
          "type": "string"
        },
        {
          "internalType": "string",
          "name": "version",
          "type": "string"
        },
        {
          "internalType": "uint256",
          "name": "chainId",
          "type": "uint256"
        },
        {
          "internalType": "address",
          "name": "verifyingContract",
          "type": "address"
        },
        {
          "internalType": "bytes32",
          "name": "salt",
          "type": "bytes32"
        },
        {
          "internalType": "uint256[]",
          "name": "extensions",
          "type": "uint256[]"
        }
      ],
      "stateMutability": "view",
      "type": "function"
    },
    {
      "inputs": [
        {
          "internalType": "bytes32",
          "name": "commandId",
          "type": "bytes32"
        },
        {
          "internalType": "string",
          "name": "sourceChain",
          "type": "string"
        },
        {
          "internalType": "string",
          "name": "sourceAddress",
          "type": "string"
        },
        {
          "internalType": "bytes",
          "name": "payload",
          "type": "bytes"
        }
      ],
      "name": "execute",
      "outputs": [],
      "stateMutability": "nonpayable",
      "type": "function"
    },
    {
      "inputs": [
        {
          "internalType": "bytes32",
          "name": "commandId",
          "type": "bytes32"
        },
        {
          "internalType": "string",
          "name": "sourceChain",
          "type": "string"
        },
        {
          "internalType": "string",
          "name": "sourceAddress",
          "type": "string"
        },
        {
          "internalType": "bytes",
          "name": "payload",
          "type": "bytes"
        },
        {
          "internalType": "string",
          "name": "tokenSymbol",
          "type": "string"
        },
        {
          "internalType": "uint256",
          "name": "amount",
          "type": "uint256"
        }
      ],
      "name": "executeWithToken",
      "outputs": [],
      "stateMutability": "nonpayable",
      "type": "function"
    },
    {
      "inputs": [],
      "name": "gasService",
      "outputs": [
        {
          "internalType": "contract IAxelarGasService",
          "name": "",
          "type": "address"
        }
      ],
      "stateMutability": "view",
      "type": "function"
    },
    {
      "inputs": [],
      "name": "gateway",
      "outputs": [
        {
          "internalType": "contract IAxelarGateway",
          "name": "",
          "type": "address"
        }
      ],
      "stateMutability": "view",
      "type": "function"
    },
    {
      "inputs": [
        {
          "internalType": "address",
          "name": "to",
          "type": "address"
        },
        {
          "internalType": "uint256",
          "name": "amount",
          "type": "uint256"
        }
      ],
      "name": "mint",
      "outputs": [],
      "stateMutability": "nonpayable",
      "type": "function"
    },
    {
      "inputs": [],
      "name": "name",
      "outputs": [
        {
          "internalType": "string",
          "name": "",
          "type": "string"
        }
      ],
      "stateMutability": "view",
      "type": "function"
    },
    {
      "inputs": [
        {
          "internalType": "address",
          "name": "owner",
          "type": "address"
        }
      ],
      "name": "nonces",
      "outputs": [
        {
          "internalType": "uint256",
          "name": "",
          "type": "uint256"
        }
      ],
      "stateMutability": "view",
      "type": "function"
    },
    {
      "inputs": [],
      "name": "owner",
      "outputs": [
        {
          "internalType": "address",
          "name": "",
          "type": "address"
        }
      ],
      "stateMutability": "view",
      "type": "function"
    },
    {
      "inputs": [
        {
          "internalType": "address",
          "name": "owner",
          "type": "address"
        },
        {
          "internalType": "address",
          "name": "spender",
          "type": "address"
        },
        {
          "internalType": "uint256",
          "name": "value",
          "type": "uint256"
        },
        {
          "internalType": "uint256",
          "name": "deadline",
          "type": "uint256"
        },
        {
          "internalType": "uint8",
          "name": "v",
          "type": "uint8"
        },
        {
          "internalType": "bytes32",
          "name": "r",
          "type": "bytes32"
        },
        {
          "internalType": "bytes32",
          "name": "s",
          "type": "bytes32"
        }
      ],
      "name": "permit",
      "outputs": [],
      "stateMutability": "nonpayable",
      "type": "function"
    },
    {
      "inputs": [],
      "name": "renounceOwnership",
      "outputs": [],
      "stateMutability": "nonpayable",
      "type": "function"
    },
    {
      "inputs": [
        {
          "internalType": "string",
          "name": "destinationChain",
          "type": "string"
        },
        {
          "internalType": "address",
          "name": "destinationAddress",
          "type": "address"
        },
        {
          "internalType": "uint256",
          "name": "amount",
          "type": "uint256"
        }
      ],
      "name": "sendTokensCrossChain",
      "outputs": [],
      "stateMutability": "payable",
      "type": "function"
    },
    {
      "inputs": [
        {
          "internalType": "string",
          "name": "chain",
          "type": "string"
        },
        {
          "internalType": "string",
          "name": "remoteAddress",
          "type": "string"
        }
      ],
      "name": "setTrustedRemote",
      "outputs": [],
      "stateMutability": "nonpayable",
      "type": "function"
    },
    {
      "inputs": [],
      "name": "symbol",
      "outputs": [
        {
          "internalType": "string",
          "name": "",
          "type": "string"
        }
      ],
      "stateMutability": "view",
      "type": "function"
    },
    {
      "inputs": [],
      "name": "totalSupply",
      "outputs": [
        {
          "internalType": "uint256",
          "name": "",
          "type": "uint256"
        }
      ],
      "stateMutability": "view",
      "type": "function"
    },
    {
      "inputs": [
        {
          "internalType": "address",
          "name": "to",
          "type": "address"
        },
        {
          "internalType": "uint256",
          "name": "value",
          "type": "uint256"
        }
      ],
      "name": "transfer",
      "outputs": [
        {
          "internalType": "bool",
          "name": "",
          "type": "bool"
        }
      ],
      "stateMutability": "nonpayable",
      "type": "function"
    },
    {
      "inputs": [
        {
          "internalType": "address",
          "name": "from",
          "type": "address"
        },
        {
          "internalType": "address",
          "name": "to",
          "type": "address"
        },
        {
          "internalType": "uint256",
          "name": "value",
          "type": "uint256"
        }
      ],
      "name": "transferFrom",
      "outputs": [
        {
          "internalType": "bool",
          "name": "",
          "type": "bool"
        }
      ],
      "stateMutability": "nonpayable",
      "type": "function"
    },
    {
      "inputs": [
        {
          "internalType": "address",
          "name": "newOwner",
          "type": "address"
        }
      ],
      "name": "transferOwnership",
      "outputs": [],
      "stateMutability": "nonpayable",
      "type": "function"
    },
    {
      "inputs": [
        {
          "internalType": "string",
          "name": "",
          "type": "string"
        }
      ],
      "name": "trustedRemotes",
      "outputs": [
        {
          "internalType": "string",
          "name": "",
          "type": "string"
        }
      ],
      "stateMutability": "view",
      "type": "function"
    }
  ],
  "transactionHash": "0xf1cf9c2e73c4cbee9869021f1107a13d866619c6b71604e31ce048a2874beff9",
  "args": [
    "Sea of Fortune Battle",
    "SFB",
    10,
    "0xE6F4491CA3670984BD0Add553f296B5960c32374",
    "0xC249632c2D40b9001FE907806902f63038B737Ab",
    "0xbE406F0189A0B4cf3A05C286473D23791Dd44Cc6"
  ],
  "numDeployments": 1,
  "solcInputHash": "abf916aa277a2cda8d13925346783e68",
  "bytecode": "0x6101a06040523480156200001257600080fd5b5060405162002b5338038062002b53833981016040819052620000359162000558565b818680604051806040016040528060018152602001603160f81b815250868a8a816003908162000066919062000691565b50600462000075828262000691565b5050506001600160a01b038116620000a857604051631e4fbdf760e01b8152600060048201526024015b60405180910390fd5b620000b3816200022f565b50620000c182600662000281565b61012052620000d281600762000281565b61014052815160208084019190912060e052815190820120610100524660a0526200016060e05161010051604080517f8b73c3c69bb8fe3d512ecc4cf759cc79239f7b179b0ffacaa9a75d522b39400f60208201529081019290925260608201524660808201523060a082015260009060c00160405160208183030381529060405280519060200120905090565b60805250503060c052506001600160a01b038116620001925760405163e6c4247b60e01b815260040160405180910390fd5b6001600160a01b03908116610160528316620001f15760405162461bcd60e51b815260206004820152601c60248201527f4f776e657220616464726573732063616e6e6f74206265207a65726f0000000060448201526064016200009f565b6200021683620002046012600a62000870565b62000210908762000888565b620002ba565b6001600160a01b03166101805250620009129350505050565b600580546001600160a01b038381166001600160a01b0319831681179093556040519116919082907f8be0079c531659141344cd1fd0a4f28419497f9722a3daafe3b4186f6b6457e090600090a35050565b6000602083511015620002a1576200029983620002f8565b9050620002b4565b81620002ae848262000691565b5060ff90505b92915050565b6001600160a01b038216620002e65760405163ec442f0560e01b8152600060048201526024016200009f565b620002f4600083836200033b565b5050565b600080829050601f8151111562000326578260405163305a27a960e01b81526004016200009f9190620008a2565b80516200033382620008d7565b179392505050565b6001600160a01b0383166200036a5780600260008282546200035e9190620008fc565b90915550620003de9050565b6001600160a01b03831660009081526020819052604090205481811015620003bf5760405163391434e360e21b81526001600160a01b038516600482015260248101829052604481018390526064016200009f565b6001600160a01b03841660009081526020819052604090209082900390555b6001600160a01b038216620003fc576002805482900390556200041b565b6001600160a01b03821660009081526020819052604090208054820190555b816001600160a01b0316836001600160a01b03167fddf252ad1be2c89b69c2b068fc378daa952ba7f163c4a11628f55a4df523b3ef836040516200046191815260200190565b60405180910390a3505050565b634e487b7160e01b600052604160045260246000fd5b60005b83811015620004a157818101518382015260200162000487565b50506000910152565b600082601f830112620004bc57600080fd5b81516001600160401b0380821115620004d957620004d96200046e565b604051601f8301601f19908116603f011681019082821181831017156200050457620005046200046e565b816040528381528660208588010111156200051e57600080fd5b6200053184602083016020890162000484565b9695505050505050565b80516001600160a01b03811681146200055357600080fd5b919050565b60008060008060008060c087890312156200057257600080fd5b86516001600160401b03808211156200058a57600080fd5b620005988a838b01620004aa565b97506020890151915080821115620005af57600080fd5b50620005be89828a01620004aa565b95505060408701519350620005d6606088016200053b565b9250620005e6608088016200053b565b9150620005f660a088016200053b565b90509295509295509295565b600181811c908216806200061757607f821691505b6020821081036200063857634e487b7160e01b600052602260045260246000fd5b50919050565b601f8211156200068c57600081815260208120601f850160051c81016020861015620006675750805b601f850160051c820191505b81811015620006885782815560010162000673565b5050505b505050565b81516001600160401b03811115620006ad57620006ad6200046e565b620006c581620006be845462000602565b846200063e565b602080601f831160018114620006fd5760008415620006e45750858301515b600019600386901b1c1916600185901b17855562000688565b600085815260208120601f198616915b828110156200072e578886015182559484019460019091019084016200070d565b50858210156200074d5787850151600019600388901b60f8161c191681555b5050505050600190811b01905550565b634e487b7160e01b600052601160045260246000fd5b600181815b80851115620007b45781600019048211156200079857620007986200075d565b80851615620007a657918102915b93841c939080029062000778565b509250929050565b600082620007cd57506001620002b4565b81620007dc57506000620002b4565b8160018114620007f55760028114620008005762000820565b6001915050620002b4565b60ff8411156200081457620008146200075d565b50506001821b620002b4565b5060208310610133831016604e8410600b841016171562000845575081810a620002b4565b62000851838362000773565b80600019048211156200086857620008686200075d565b029392505050565b60006200088160ff841683620007bc565b9392505050565b8082028115828204841417620002b457620002b46200075d565b6020815260008251806020840152620008c381604085016020870162000484565b601f01601f19169190910160400192915050565b80516020808301519190811015620006385760001960209190910360031b1b16919050565b80820180821115620002b457620002b46200075d565b60805160a05160c05160e05161010051610120516101405161016051610180516121b46200099f600039600081816103510152610ae70152600081816101f30152818161060f015281816107400152610b9201526000611227015260006111fa01526000610fc101526000610f9901526000610ef401526000610f1e01526000610f4801526121b46000f3fe6080604052600436106101815760003560e01c806370a08231116100d1578063920a14a71161008a578063ba0c79a611610064578063ba0c79a614610499578063d505accf146104ac578063dd62ed3e146104cc578063f2fde38b1461051257600080fd5b8063920a14a71461044457806395d89b4114610464578063a9059cbb1461047957600080fd5b806370a0823114610373578063715018a6146103a957806379cc6790146103be5780637ecebe00146103de57806384b0196e146103fe5780638da5cb5b1461042657600080fd5b8063313ce5671161013e57806342966c681161011857806342966c68146102df57806349160658146102ff5780634e90b9c01461031f5780636a22d8cc1461033f57600080fd5b8063313ce5671461028e5780633644e515146102aa57806340c10f19146102bf57600080fd5b806306fdde0314610186578063095ea7b3146101b1578063116191b6146101e157806318160ddd1461022d5780631a98b2e01461024c57806323b872dd1461026e575b600080fd5b34801561019257600080fd5b5061019b610532565b6040516101a89190611787565b60405180910390f35b3480156101bd57600080fd5b506101d16101cc3660046117b6565b6105c4565b60405190151581526020016101a8565b3480156101ed57600080fd5b506102157f000000000000000000000000000000000000000000000000000000000000000081565b6040516001600160a01b0390911681526020016101a8565b34801561023957600080fd5b506002545b6040519081526020016101a8565b34801561025857600080fd5b5061026c61026736600461182b565b6105de565b005b34801561027a57600080fd5b506101d1610289366004611905565b6106c1565b34801561029a57600080fd5b50604051601281526020016101a8565b3480156102b657600080fd5b5061023e6106e5565b3480156102cb57600080fd5b5061026c6102da3660046117b6565b6106f4565b3480156102eb57600080fd5b5061026c6102fa366004611946565b610702565b34801561030b57600080fd5b5061026c61031a36600461195f565b61070f565b34801561032b57600080fd5b5061019b61033a366004611a19565b6107f7565b34801561034b57600080fd5b506102157f000000000000000000000000000000000000000000000000000000000000000081565b34801561037f57600080fd5b5061023e61038e366004611aca565b6001600160a01b031660009081526020819052604090205490565b3480156103b557600080fd5b5061026c61089c565b3480156103ca57600080fd5b5061026c6103d93660046117b6565b6108b0565b3480156103ea57600080fd5b5061023e6103f9366004611aca565b6108c5565b34801561040a57600080fd5b506104136108e3565b6040516101a89796959493929190611ae7565b34801561043257600080fd5b506005546001600160a01b0316610215565b34801561045057600080fd5b5061026c61045f366004611b7d565b610929565b34801561047057600080fd5b5061019b610967565b34801561048557600080fd5b506101d16104943660046117b6565b610976565b61026c6104a7366004611be9565b610984565b3480156104b857600080fd5b5061026c6104c7366004611c46565b610c83565b3480156104d857600080fd5b5061023e6104e7366004611cbd565b6001600160a01b03918216600090815260016020908152604080832093909416825291909152205490565b34801561051e57600080fd5b5061026c61052d366004611aca565b610dbd565b60606003805461054190611cf6565b80601f016020809104026020016040519081016040528092919081815260200182805461056d90611cf6565b80156105ba5780601f1061058f576101008083540402835291602001916105ba565b820191906000526020600020905b81548152906001019060200180831161059d57829003601f168201915b5050505050905090565b6000336105d2818585610df8565b60019150505b92915050565b600085856040516105f0929190611d30565b604051908190038120631876eed960e01b825291506001600160a01b037f00000000000000000000000000000000000000000000000000000000000000001690631876eed990610654908e908e908e908e908e9089908d908d908d90600401611d69565b6020604051808303816000875af1158015610673573d6000803e3d6000fd5b505050506040513d601f19601f820116820180604052508101906106979190611dc8565b6106b457604051631403112d60e21b815260040160405180910390fd5b5050505050505050505050565b6000336106cf858285610e0a565b6106da858585610e88565b506001949350505050565b60006106ef610ee7565b905090565b6106fe8282611012565b5050565b61070c3382611048565b50565b60008282604051610721929190611d30565b604051908190038120635f6970c360e01b825291506001600160a01b037f00000000000000000000000000000000000000000000000000000000000000001690635f6970c39061077f908b908b908b908b908b908990600401611dea565b6020604051808303816000875af115801561079e573d6000803e3d6000fd5b505050506040513d601f19601f820116820180604052508101906107c29190611dc8565b6107df57604051631403112d60e21b815260040160405180910390fd5b6107ed87878787878761107e565b5050505050505050565b80516020818301810180516009825292820191909301209152805461081b90611cf6565b80601f016020809104026020016040519081016040528092919081815260200182805461084790611cf6565b80156108945780601f1061086957610100808354040283529160200191610894565b820191906000526020600020905b81548152906001019060200180831161087757829003601f168201915b505050505081565b6108a4611174565b6108ae60006111a1565b565b6108bb823383610e0a565b6106fe8282611048565b6001600160a01b0381166000908152600860205260408120546105d8565b6000606080600080600060606108f76111f3565b6108ff611220565b60408051600080825260208201909252600f60f81b9b939a50919850469750309650945092509050565b610931611174565b818160098686604051610945929190611d30565b90815260200160405180910390209182610960929190611e79565b5050505050565b60606004805461054190611cf6565b6000336105d2818585610e88565b600081116109d95760405162461bcd60e51b815260206004820181905260248201527f416d6f756e74206d7573742062652067726561746572207468616e207a65726f60448201526064015b60405180910390fd5b33600090815260208190526040902054811115610a2f5760405162461bcd60e51b8152602060048201526014602482015273496e73756666696369656e742062616c616e636560601b60448201526064016109d0565b600060098585604051610a43929190611d30565b90815260200160405180910390208054610a5c90611cf6565b905011610aab5760405162461bcd60e51b815260206004820152601d60248201527f44657374696e6174696f6e20636861696e206e6f74207472757374656400000060448201526064016109d0565b610ab53382611048565b604080516001600160a01b038416602082015280820183905281518082038301815260609091019091523415610b90577f00000000000000000000000000000000000000000000000000000000000000006001600160a01b0316630c93e3bb3430888860098b8b604051610b2a929190611d30565b9081526040519081900360200181206001600160e01b031960e088901b168252610b5d9493929189903390600401611fb6565b6000604051808303818588803b158015610b7657600080fd5b505af1158015610b8a573d6000803e3d6000fd5b50505050505b7f00000000000000000000000000000000000000000000000000000000000000006001600160a01b0316631c92115f868660098989604051610bd3929190611d30565b9081526040519081900360200181206001600160e01b031960e086901b168252610c039392918790600401612016565b600060405180830381600087803b158015610c1d57600080fd5b505af1158015610c31573d6000803e3d6000fd5b50505050336001600160a01b03167fc712261ff44abf1f73eab8c58b88c07d7d52eaaca5715915b0c56d271c14b0e386868686604051610c74949392919061205b565b60405180910390a25050505050565b83421115610ca75760405163313c898160e11b8152600481018590526024016109d0565b60007f6e71edae12b1b97f4d1f60370fef10105fa2faae0126114a169c64845d6126c9888888610cf48c6001600160a01b0316600090815260086020526040902080546001810190915590565b6040805160208101969096526001600160a01b0394851690860152929091166060840152608083015260a082015260c0810186905260e0016040516020818303038152906040528051906020012090506000610d4f8261124d565b90506000610d5f8287878761127a565b9050896001600160a01b0316816001600160a01b031614610da6576040516325c0072360e11b81526001600160a01b0380831660048301528b1660248201526044016109d0565b610db18a8a8a610df8565b50505050505050505050565b610dc5611174565b6001600160a01b038116610def57604051631e4fbdf760e01b8152600060048201526024016109d0565b61070c816111a1565b610e0583838360016112a8565b505050565b6001600160a01b038381166000908152600160209081526040808320938616835292905220546000198114610e825781811015610e7357604051637dc7a0d960e11b81526001600160a01b038416600482015260248101829052604481018390526064016109d0565b610e82848484840360006112a8565b50505050565b6001600160a01b038316610eb257604051634b637e8f60e11b8152600060048201526024016109d0565b6001600160a01b038216610edc5760405163ec442f0560e01b8152600060048201526024016109d0565b610e0583838361137d565b6000306001600160a01b037f000000000000000000000000000000000000000000000000000000000000000016148015610f4057507f000000000000000000000000000000000000000000000000000000000000000046145b15610f6a57507f000000000000000000000000000000000000000000000000000000000000000090565b6106ef604080517f8b73c3c69bb8fe3d512ecc4cf759cc79239f7b179b0ffacaa9a75d522b39400f60208201527f0000000000000000000000000000000000000000000000000000000000000000918101919091527f000000000000000000000000000000000000000000000000000000000000000060608201524660808201523060a082015260009060c00160405160208183030381529060405280519060200120905090565b6001600160a01b03821661103c5760405163ec442f0560e01b8152600060048201526024016109d0565b6106fe6000838361137d565b6001600160a01b03821661107257604051634b637e8f60e11b8152600060048201526024016109d0565b6106fe8260008361137d565b60098686604051611090929190611d30565b9081526040519081900360200181206110a89161208b565b604051809103902084846040516110c0929190611d30565b60405180910390201461110c5760405162461bcd60e51b81526020600482015260146024820152734e6f742061207472757374656420736f7572636560601b60448201526064016109d0565b60008061111b838501856117b6565b915091506111298282611012565b7f1b19b1ff3a66836f0bd201047c1aaeac96fb794f41eb7e78411654800c880c1488888888868660405161116296959493929190612101565b60405180910390a15050505050505050565b6005546001600160a01b031633146108ae5760405163118cdaa760e01b81523360048201526024016109d0565b600580546001600160a01b038381166001600160a01b0319831681179093556040519116919082907f8be0079c531659141344cd1fd0a4f28419497f9722a3daafe3b4186f6b6457e090600090a35050565b60606106ef7f000000000000000000000000000000000000000000000000000000000000000060066114a7565b60606106ef7f000000000000000000000000000000000000000000000000000000000000000060076114a7565b60006105d861125a610ee7565b8360405161190160f01b8152600281019290925260228201526042902090565b60008060008061128c88888888611552565b92509250925061129c8282611621565b50909695505050505050565b6001600160a01b0384166112d25760405163e602df0560e01b8152600060048201526024016109d0565b6001600160a01b0383166112fc57604051634a1406b160e11b8152600060048201526024016109d0565b6001600160a01b0380851660009081526001602090815260408083209387168352929052208290558015610e8257826001600160a01b0316846001600160a01b03167f8c5be1e5ebec7d5bd14f71427d1e84f3dd0314c0f7b2291e5b200ac8c7c3b9258460405161136f91815260200190565b60405180910390a350505050565b6001600160a01b0383166113a857806002600082825461139d9190612147565b9091555061141a9050565b6001600160a01b038316600090815260208190526040902054818110156113fb5760405163391434e360e21b81526001600160a01b038516600482015260248101829052604481018390526064016109d0565b6001600160a01b03841660009081526020819052604090209082900390555b6001600160a01b03821661143657600280548290039055611455565b6001600160a01b03821660009081526020819052604090208054820190555b816001600160a01b0316836001600160a01b03167fddf252ad1be2c89b69c2b068fc378daa952ba7f163c4a11628f55a4df523b3ef8360405161149a91815260200190565b60405180910390a3505050565b606060ff83146114c1576114ba836116da565b90506105d8565b8180546114cd90611cf6565b80601f01602080910402602001604051908101604052809291908181526020018280546114f990611cf6565b80156115465780601f1061151b57610100808354040283529160200191611546565b820191906000526020600020905b81548152906001019060200180831161152957829003601f168201915b505050505090506105d8565b600080807f7fffffffffffffffffffffffffffffff5d576e7357a4501ddfe92f46681b20a084111561158d5750600091506003905082611617565b604080516000808252602082018084528a905260ff891692820192909252606081018790526080810186905260019060a0016020604051602081039080840390855afa1580156115e1573d6000803e3d6000fd5b5050604051601f1901519150506001600160a01b03811661160d57506000925060019150829050611617565b9250600091508190505b9450945094915050565b600082600381111561163557611635612168565b0361163e575050565b600182600381111561165257611652612168565b036116705760405163f645eedf60e01b815260040160405180910390fd5b600282600381111561168457611684612168565b036116a55760405163fce698f760e01b8152600481018290526024016109d0565b60038260038111156116b9576116b9612168565b036106fe576040516335e2f38360e21b8152600481018290526024016109d0565b606060006116e783611719565b604080516020808252818301909252919250600091906020820181803683375050509182525060208101929092525090565b600060ff8216601f8111156105d857604051632cd44ac360e21b815260040160405180910390fd5b6000815180845260005b818110156117675760208185018101518683018201520161174b565b506000602082860101526020601f19601f83011685010191505092915050565b60208152600061179a6020830184611741565b9392505050565b6001600160a01b038116811461070c57600080fd5b600080604083850312156117c957600080fd5b82356117d4816117a1565b946020939093013593505050565b60008083601f8401126117f457600080fd5b50813567ffffffffffffffff81111561180c57600080fd5b60208301915083602082850101111561182457600080fd5b9250929050565b60008060008060008060008060008060c08b8d03121561184a57600080fd5b8a35995060208b013567ffffffffffffffff8082111561186957600080fd5b6118758e838f016117e2565b909b50995060408d013591508082111561188e57600080fd5b61189a8e838f016117e2565b909950975060608d01359150808211156118b357600080fd5b6118bf8e838f016117e2565b909750955060808d01359150808211156118d857600080fd5b506118e58d828e016117e2565b9150809450508092505060a08b013590509295989b9194979a5092959850565b60008060006060848603121561191a57600080fd5b8335611925816117a1565b92506020840135611935816117a1565b929592945050506040919091013590565b60006020828403121561195857600080fd5b5035919050565b60008060008060008060006080888a03121561197a57600080fd5b87359650602088013567ffffffffffffffff8082111561199957600080fd5b6119a58b838c016117e2565b909850965060408a01359150808211156119be57600080fd5b6119ca8b838c016117e2565b909650945060608a01359150808211156119e357600080fd5b506119f08a828b016117e2565b989b979a50959850939692959293505050565b634e487b7160e01b600052604160045260246000fd5b600060208284031215611a2b57600080fd5b813567ffffffffffffffff80821115611a4357600080fd5b818401915084601f830112611a5757600080fd5b813581811115611a6957611a69611a03565b604051601f8201601f19908116603f01168101908382118183101715611a9157611a91611a03565b81604052828152876020848701011115611aaa57600080fd5b826020860160208301376000928101602001929092525095945050505050565b600060208284031215611adc57600080fd5b813561179a816117a1565b60ff60f81b881681526000602060e081840152611b0760e084018a611741565b8381036040850152611b19818a611741565b606085018990526001600160a01b038816608086015260a0850187905284810360c0860152855180825283870192509083019060005b81811015611b6b57835183529284019291840191600101611b4f565b50909c9b505050505050505050505050565b60008060008060408587031215611b9357600080fd5b843567ffffffffffffffff80821115611bab57600080fd5b611bb7888389016117e2565b90965094506020870135915080821115611bd057600080fd5b50611bdd878288016117e2565b95989497509550505050565b60008060008060608587031215611bff57600080fd5b843567ffffffffffffffff811115611c1657600080fd5b611c22878288016117e2565b9095509350506020850135611c36816117a1565b9396929550929360400135925050565b600080600080600080600060e0888a031215611c6157600080fd5b8735611c6c816117a1565b96506020880135611c7c816117a1565b95506040880135945060608801359350608088013560ff81168114611ca057600080fd5b9699959850939692959460a0840135945060c09093013592915050565b60008060408385031215611cd057600080fd5b8235611cdb816117a1565b91506020830135611ceb816117a1565b809150509250929050565b600181811c90821680611d0a57607f821691505b602082108103611d2a57634e487b7160e01b600052602260045260246000fd5b50919050565b8183823760009101908152919050565b81835281816020850137506000828201602090810191909152601f909101601f19169091010190565b89815260c060208201526000611d8360c083018a8c611d40565b8281036040840152611d9681898b611d40565b90508660608401528281036080840152611db1818688611d40565b9150508260a08301529a9950505050505050505050565b600060208284031215611dda57600080fd5b8151801515811461179a57600080fd5b868152608060208201526000611e04608083018789611d40565b8281036040840152611e17818688611d40565b915050826060830152979650505050505050565b601f821115610e0557600081815260208120601f850160051c81016020861015611e525750805b601f850160051c820191505b81811015611e7157828155600101611e5e565b505050505050565b67ffffffffffffffff831115611e9157611e91611a03565b611ea583611e9f8354611cf6565b83611e2b565b6000601f841160018114611ed95760008515611ec15750838201355b600019600387901b1c1916600186901b178355610960565b600083815260209020601f19861690835b82811015611f0a5786850135825560209485019460019092019101611eea565b5086821015611f275760001960f88860031b161c19848701351681555b505060018560011b0183555050505050565b60008154611f4681611cf6565b808552602060018381168015611f635760018114611f7d57611fab565b60ff1985168884015283151560051b880183019550611fab565b866000528260002060005b85811015611fa35781548a8201860152908301908401611f88565b890184019650505b505050505092915050565b600060018060a01b03808916835260a06020840152611fd960a08401888a611d40565b8381036040850152611feb8188611f39565b90508381036060850152611fff8187611741565b925050808416608084015250979650505050505050565b60608152600061202a606083018688611d40565b828103602084015261203c8186611f39565b905082810360408401526120508185611741565b979650505050505050565b60608152600061206f606083018688611d40565b6001600160a01b03949094166020830152506040015292915050565b600080835461209981611cf6565b600182811680156120b157600181146120c6576120f5565b60ff19841687528215158302870194506120f5565b8760005260208060002060005b858110156120ec5781548a8201529084019082016120d3565b50505082870194505b50929695505050505050565b60808152600061211560808301888a611d40565b8281036020840152612128818789611d40565b6001600160a01b03959095166040840152505060600152949350505050565b808201808211156105d857634e487b7160e01b600052601160045260246000fd5b634e487b7160e01b600052602160045260246000fdfea26469706673582212206aae1a2b30e6dbe0190e30819485f6357da2461f25080d70c72b1b2c083c6db064736f6c63430008140033",
  "devdoc": {
    "errors": {
      "ECDSAInvalidSignature()": [
        {
          "details": "The signature derives the `address(0)`."
        }
      ],
      "ECDSAInvalidSignatureLength(uint256)": [
        {
          "details": "The signature has an invalid length."
        }
      ],
      "ECDSAInvalidSignatureS(bytes32)": [
        {
          "details": "The signature has an S value that is in the upper half order."
        }
      ],
      "ERC20InsufficientAllowance(address,uint256,uint256)": [
        {
          "details": "Indicates a failure with the `spender`s `allowance`. Used in transfers.",
          "params": {
            "allowance": "Amount of tokens a `spender` is allowed to operate with.",
            "needed": "Minimum amount required to perform a transfer.",
            "spender": "Address that may be allowed to operate on tokens without being their owner."
          }
        }
      ],
      "ERC20InsufficientBalance(address,uint256,uint256)": [
        {
          "details": "Indicates an error related to the current `balance` of a `sender`. Used in transfers.",
          "params": {
            "balance": "Current balance for the interacting account.",
            "needed": "Minimum amount required to perform a transfer.",
            "sender": "Address whose tokens are being transferred."
          }
        }
      ],
      "ERC20InvalidApprover(address)": [
        {
          "details": "Indicates a failure with the `approver` of a token to be approved. Used in approvals.",
          "params": {
            "approver": "Address initiating an approval operation."
          }
        }
      ],
      "ERC20InvalidReceiver(address)": [
        {
          "details": "Indicates a failure with the token `receiver`. Used in transfers.",
          "params": {
            "receiver": "Address to which tokens are being transferred."
          }
        }
      ],
      "ERC20InvalidSender(address)": [
        {
          "details": "Indicates a failure with the token `sender`. Used in transfers.",
          "params": {
            "sender": "Address whose tokens are being transferred."
          }
        }
      ],
      "ERC20InvalidSpender(address)": [
        {
          "details": "Indicates a failure with the `spender` to be approved. Used in approvals.",
          "params": {
            "spender": "Address that may be allowed to operate on tokens without being their owner."
          }
        }
      ],
      "ERC2612ExpiredSignature(uint256)": [
        {
          "details": "Permit deadline has expired."
        }
      ],
      "ERC2612InvalidSigner(address,address)": [
        {
          "details": "Mismatched signature."
        }
      ],
      "InvalidAccountNonce(address,uint256)": [
        {
          "details": "The nonce used for an `account` is not the expected current nonce."
        }
      ],
      "OwnableInvalidOwner(address)": [
        {
          "details": "The owner is not a valid owner account. (eg. `address(0)`)"
        }
      ],
      "OwnableUnauthorizedAccount(address)": [
        {
          "details": "The caller account is not authorized to perform an operation."
        }
      ]
    },
    "events": {
      "Approval(address,address,uint256)": {
        "details": "Emitted when the allowance of a `spender` for an `owner` is set by a call to {approve}. `value` is the new allowance."
      },
      "EIP712DomainChanged()": {
        "details": "MAY be emitted to signal that the domain could have changed."
      },
      "Transfer(address,address,uint256)": {
        "details": "Emitted when `value` tokens are moved from one account (`from`) to another (`to`). Note that `value` may be zero."
      }
    },
    "kind": "dev",
    "methods": {
      "DOMAIN_SEPARATOR()": {
        "details": "Returns the domain separator used in the encoding of the signature for {permit}, as defined by {EIP712}."
      },
      "allowance(address,address)": {
        "details": "See {IERC20-allowance}."
      },
      "approve(address,uint256)": {
        "details": "See {IERC20-approve}. NOTE: If `value` is the maximum `uint256`, the allowance is not updated on `transferFrom`. This is semantically equivalent to an infinite approval. Requirements: - `spender` cannot be the zero address."
      },
      "balanceOf(address)": {
        "details": "See {IERC20-balanceOf}."
      },
      "burn(uint256)": {
        "details": "Destroys a `value` amount of tokens from the caller. See {ERC20-_burn}."
      },
      "burnFrom(address,uint256)": {
        "details": "Destroys a `value` amount of tokens from `account`, deducting from the caller's allowance. See {ERC20-_burn} and {ERC20-allowance}. Requirements: - the caller must have allowance for ``accounts``'s tokens of at least `value`."
      },
      "constructor": {
        "details": "Constructor that initializes the contract with the Axelar Gateway and Gas Service addresses.",
        "params": {
          "_gasService": "The address of the Axelar Gas Service contract.",
          "_gateway": "The address of the Axelar Gateway contract.",
          "_initialOwner": "The owner of the contract.",
          "_initialSupply": "The initial supply of the token.",
          "_name": "The name of the token.",
          "_symbol": "The symbol of the token."
        }
      },
      "decimals()": {
        "details": "Returns the number of decimals used to get its user representation. For example, if `decimals` equals `2`, a balance of `505` tokens should be displayed to a user as `5.05` (`505 / 10 ** 2`). Tokens usually opt for a value of 18, imitating the relationship between Ether and Wei. This is the default value returned by this function, unless it's overridden. NOTE: This information is only used for _display_ purposes: it in no way affects any of the arithmetic of the contract, including {IERC20-balanceOf} and {IERC20-transfer}."
      },
      "eip712Domain()": {
        "details": "See {IERC-5267}."
      },
      "name()": {
        "details": "Returns the name of the token."
      },
      "nonces(address)": {
        "details": "Returns the current nonce for `owner`. This value must be included whenever a signature is generated for {permit}. Every successful call to {permit} increases ``owner``'s nonce by one. This prevents a signature from being used multiple times."
      },
      "owner()": {
        "details": "Returns the address of the current owner."
      },
      "permit(address,address,uint256,uint256,uint8,bytes32,bytes32)": {
        "details": "Sets `value` as the allowance of `spender` over ``owner``'s tokens, given ``owner``'s signed approval. IMPORTANT: The same issues {IERC20-approve} has related to transaction ordering also apply here. Emits an {Approval} event. Requirements: - `spender` cannot be the zero address. - `deadline` must be a timestamp in the future. - `v`, `r` and `s` must be a valid `secp256k1` signature from `owner` over the EIP712-formatted function arguments. - the signature must use ``owner``'s current nonce (see {nonces}). For more information on the signature format, see the https://eips.ethereum.org/EIPS/eip-2612#specification[relevant EIP section]. CAUTION: See Security Considerations above."
      },
      "renounceOwnership()": {
        "details": "Leaves the contract without owner. It will not be possible to call `onlyOwner` functions. Can only be called by the current owner. NOTE: Renouncing ownership will leave the contract without an owner, thereby disabling any functionality that is only available to the owner."
      },
      "sendTokensCrossChain(string,address,uint256)": {
        "details": "Function to initiate a cross-chain transfer of tokens.",
        "params": {
          "amount": "The amount of tokens being transferred.",
          "destinationAddress": "The address on the destination chain where the tokens will be received.",
          "destinationChain": "The chain to which the tokens will be transferred."
        }
      },
      "setTrustedRemote(string,string)": {
        "details": "Function to set trusted remote addresses for cross-chain communication.",
        "params": {
          "chain": "The chain for which the trusted remote address is being set.",
          "remoteAddress": "The trusted remote address for the specified chain."
        }
      },
      "symbol()": {
        "details": "Returns the symbol of the token, usually a shorter version of the name."
      },
      "totalSupply()": {
        "details": "See {IERC20-totalSupply}."
      },
      "transfer(address,uint256)": {
        "details": "See {IERC20-transfer}. Requirements: - `to` cannot be the zero address. - the caller must have a balance of at least `value`."
      },
      "transferFrom(address,address,uint256)": {
        "details": "See {IERC20-transferFrom}. Emits an {Approval} event indicating the updated allowance. This is not required by the EIP. See the note at the beginning of {ERC20}. NOTE: Does not update the allowance if the current allowance is the maximum `uint256`. Requirements: - `from` and `to` cannot be the zero address. - `from` must have a balance of at least `value`. - the caller must have allowance for ``from``'s tokens of at least `value`."
      },
      "transferOwnership(address)": {
        "details": "Transfers ownership of the contract to a new account (`newOwner`). Can only be called by the current owner."
      }
    },
    "version": 1
  },
  "userdoc": {
    "kind": "user",
    "methods": {},
    "version": 1
  },
  "storageLayout": {
    "storage": [
      {
        "astId": 1550,
        "contract": "contracts/CrossChainToken.sol:CrossChainToken",
        "label": "_balances",
        "offset": 0,
        "slot": "0",
        "type": "t_mapping(t_address,t_uint256)"
      },
      {
        "astId": 1556,
        "contract": "contracts/CrossChainToken.sol:CrossChainToken",
        "label": "_allowances",
        "offset": 0,
        "slot": "1",
        "type": "t_mapping(t_address,t_mapping(t_address,t_uint256))"
      },
      {
        "astId": 1558,
        "contract": "contracts/CrossChainToken.sol:CrossChainToken",
        "label": "_totalSupply",
        "offset": 0,
        "slot": "2",
        "type": "t_uint256"
      },
      {
        "astId": 1560,
        "contract": "contracts/CrossChainToken.sol:CrossChainToken",
        "label": "_name",
        "offset": 0,
        "slot": "3",
        "type": "t_string_storage"
      },
      {
        "astId": 1562,
        "contract": "contracts/CrossChainToken.sol:CrossChainToken",
        "label": "_symbol",
        "offset": 0,
        "slot": "4",
        "type": "t_string_storage"
      },
      {
        "astId": 1226,
        "contract": "contracts/CrossChainToken.sol:CrossChainToken",
        "label": "_owner",
        "offset": 0,
        "slot": "5",
        "type": "t_address"
      },
      {
        "astId": 3447,
        "contract": "contracts/CrossChainToken.sol:CrossChainToken",
        "label": "_nameFallback",
        "offset": 0,
        "slot": "6",
        "type": "t_string_storage"
      },
      {
        "astId": 3449,
        "contract": "contracts/CrossChainToken.sol:CrossChainToken",
        "label": "_versionFallback",
        "offset": 0,
        "slot": "7",
        "type": "t_string_storage"
      },
      {
        "astId": 2426,
        "contract": "contracts/CrossChainToken.sol:CrossChainToken",
        "label": "_nonces",
        "offset": 0,
        "slot": "8",
        "type": "t_mapping(t_address,t_uint256)"
      },
      {
        "astId": 4897,
        "contract": "contracts/CrossChainToken.sol:CrossChainToken",
        "label": "trustedRemotes",
        "offset": 0,
        "slot": "9",
        "type": "t_mapping(t_string_memory_ptr,t_string_storage)"
      }
    ],
    "types": {
      "t_address": {
        "encoding": "inplace",
        "label": "address",
        "numberOfBytes": "20"
      },
      "t_mapping(t_address,t_mapping(t_address,t_uint256))": {
        "encoding": "mapping",
        "key": "t_address",
        "label": "mapping(address => mapping(address => uint256))",
        "numberOfBytes": "32",
        "value": "t_mapping(t_address,t_uint256)"
      },
      "t_mapping(t_address,t_uint256)": {
        "encoding": "mapping",
        "key": "t_address",
        "label": "mapping(address => uint256)",
        "numberOfBytes": "32",
        "value": "t_uint256"
      },
      "t_mapping(t_string_memory_ptr,t_string_storage)": {
        "encoding": "mapping",
        "key": "t_string_memory_ptr",
        "label": "mapping(string => string)",
        "numberOfBytes": "32",
        "value": "t_string_storage"
      },
      "t_string_memory_ptr": {
        "encoding": "bytes",
        "label": "string",
        "numberOfBytes": "32"
      },
      "t_string_storage": {
        "encoding": "bytes",
        "label": "string",
        "numberOfBytes": "32"
      },
      "t_uint256": {
        "encoding": "inplace",
        "label": "uint256",
        "numberOfBytes": "32"
      }
    }
  }
}