{
  "address": "0x099b90ebf2FD7C048a9866E9C91833d03dce6832",
  "abi": [
    {
      "inputs": [
        {
          "internalType": "string",
          "name": "_name",
          "type": "string"
        },
        {
          "internalType": "string",
          "name": "_symbol",
          "type": "string"
        },
        {
          "internalType": "address",
          "name": "_initialOwner",
          "type": "address"
        },
        {
          "internalType": "string",
          "name": "_initialURI",
          "type": "string"
        },
        {
          "internalType": "address",
          "name": "_gateway",
          "type": "address"
        },
        {
          "internalType": "address",
          "name": "_gasService",
          "type": "address"
        }
      ],
      "stateMutability": "nonpayable",
      "type": "constructor"
    },
    {
      "inputs": [
        {
          "internalType": "address",
          "name": "sender",
          "type": "address"
        },
        {
          "internalType": "uint256",
          "name": "balance",
          "type": "uint256"
        },
        {
          "internalType": "uint256",
          "name": "needed",
          "type": "uint256"
        },
        {
          "internalType": "uint256",
          "name": "tokenId",
          "type": "uint256"
        }
      ],
      "name": "ERC1155InsufficientBalance",
      "type": "error"
    },
    {
      "inputs": [
        {
          "internalType": "address",
          "name": "approver",
          "type": "address"
        }
      ],
      "name": "ERC1155InvalidApprover",
      "type": "error"
    },
    {
      "inputs": [
        {
          "internalType": "uint256",
          "name": "idsLength",
          "type": "uint256"
        },
        {
          "internalType": "uint256",
          "name": "valuesLength",
          "type": "uint256"
        }
      ],
      "name": "ERC1155InvalidArrayLength",
      "type": "error"
    },
    {
      "inputs": [
        {
          "internalType": "address",
          "name": "operator",
          "type": "address"
        }
      ],
      "name": "ERC1155InvalidOperator",
      "type": "error"
    },
    {
      "inputs": [
        {
          "internalType": "address",
          "name": "receiver",
          "type": "address"
        }
      ],
      "name": "ERC1155InvalidReceiver",
      "type": "error"
    },
    {
      "inputs": [
        {
          "internalType": "address",
          "name": "sender",
          "type": "address"
        }
      ],
      "name": "ERC1155InvalidSender",
      "type": "error"
    },
    {
      "inputs": [
        {
          "internalType": "address",
          "name": "operator",
          "type": "address"
        },
        {
          "internalType": "address",
          "name": "owner",
          "type": "address"
        }
      ],
      "name": "ERC1155MissingApprovalForAll",
      "type": "error"
    },
    {
      "inputs": [],
      "name": "InvalidAddress",
      "type": "error"
    },
    {
      "inputs": [],
      "name": "NotApprovedByGateway",
      "type": "error"
    },
    {
      "inputs": [
        {
          "internalType": "address",
          "name": "owner",
          "type": "address"
        }
      ],
      "name": "OwnableInvalidOwner",
      "type": "error"
    },
    {
      "inputs": [
        {
          "internalType": "address",
          "name": "account",
          "type": "address"
        }
      ],
      "name": "OwnableUnauthorizedAccount",
      "type": "error"
    },
    {
      "anonymous": false,
      "inputs": [
        {
          "indexed": true,
          "internalType": "address",
          "name": "account",
          "type": "address"
        },
        {
          "indexed": true,
          "internalType": "address",
          "name": "operator",
          "type": "address"
        },
        {
          "indexed": false,
          "internalType": "bool",
          "name": "approved",
          "type": "bool"
        }
      ],
      "name": "ApprovalForAll",
      "type": "event"
    },
    {
      "anonymous": false,
      "inputs": [
        {
          "indexed": true,
          "internalType": "uint256",
          "name": "id",
          "type": "uint256"
        },
        {
          "indexed": false,
          "internalType": "uint256",
          "name": "maxSupply",
          "type": "uint256"
        }
      ],
      "name": "CollectionCreated",
      "type": "event"
    },
    {
      "anonymous": false,
      "inputs": [
        {
          "indexed": false,
          "internalType": "string",
          "name": "sourceChain",
          "type": "string"
        },
        {
          "indexed": false,
          "internalType": "string",
          "name": "sourceAddress",
          "type": "string"
        },
        {
          "indexed": false,
          "internalType": "address",
          "name": "recipient",
          "type": "address"
        },
        {
          "indexed": false,
          "internalType": "uint256",
          "name": "id",
          "type": "uint256"
        },
        {
          "indexed": false,
          "internalType": "uint256",
          "name": "amount",
          "type": "uint256"
        }
      ],
      "name": "CrossChainTransferExecuted",
      "type": "event"
    },
    {
      "anonymous": false,
      "inputs": [
        {
          "indexed": true,
          "internalType": "address",
          "name": "sender",
          "type": "address"
        },
        {
          "indexed": false,
          "internalType": "string",
          "name": "destinationChain",
          "type": "string"
        },
        {
          "indexed": false,
          "internalType": "address",
          "name": "destinationAddress",
          "type": "address"
        },
        {
          "indexed": false,
          "internalType": "uint256",
          "name": "id",
          "type": "uint256"
        },
        {
          "indexed": false,
          "internalType": "uint256",
          "name": "amount",
          "type": "uint256"
        }
      ],
      "name": "CrossChainTransferInitiated",
      "type": "event"
    },
    {
      "anonymous": false,
      "inputs": [
        {
          "indexed": true,
          "internalType": "address",
          "name": "previousOwner",
          "type": "address"
        },
        {
          "indexed": true,
          "internalType": "address",
          "name": "newOwner",
          "type": "address"
        }
      ],
      "name": "OwnershipTransferred",
      "type": "event"
    },
    {
      "anonymous": false,
      "inputs": [
        {
          "indexed": true,
          "internalType": "uint256",
          "name": "id",
          "type": "uint256"
        },
        {
          "indexed": true,
          "internalType": "address",
          "name": "account",
          "type": "address"
        },
        {
          "indexed": false,
          "internalType": "uint256",
          "name": "amount",
          "type": "uint256"
        }
      ],
      "name": "TokenMinted",
      "type": "event"
    },
    {
      "anonymous": false,
      "inputs": [
        {
          "indexed": true,
          "internalType": "address",
          "name": "operator",
          "type": "address"
        },
        {
          "indexed": true,
          "internalType": "address",
          "name": "from",
          "type": "address"
        },
        {
          "indexed": true,
          "internalType": "address",
          "name": "to",
          "type": "address"
        },
        {
          "indexed": false,
          "internalType": "uint256[]",
          "name": "ids",
          "type": "uint256[]"
        },
        {
          "indexed": false,
          "internalType": "uint256[]",
          "name": "values",
          "type": "uint256[]"
        }
      ],
      "name": "TransferBatch",
      "type": "event"
    },
    {
      "anonymous": false,
      "inputs": [
        {
          "indexed": true,
          "internalType": "address",
          "name": "operator",
          "type": "address"
        },
        {
          "indexed": true,
          "internalType": "address",
          "name": "from",
          "type": "address"
        },
        {
          "indexed": true,
          "internalType": "address",
          "name": "to",
          "type": "address"
        },
        {
          "indexed": false,
          "internalType": "uint256",
          "name": "id",
          "type": "uint256"
        },
        {
          "indexed": false,
          "internalType": "uint256",
          "name": "value",
          "type": "uint256"
        }
      ],
      "name": "TransferSingle",
      "type": "event"
    },
    {
      "anonymous": false,
      "inputs": [
        {
          "indexed": false,
          "internalType": "string",
          "name": "value",
          "type": "string"
        },
        {
          "indexed": true,
          "internalType": "uint256",
          "name": "id",
          "type": "uint256"
        }
      ],
      "name": "URI",
      "type": "event"
    },
    {
      "inputs": [
        {
          "internalType": "address",
          "name": "account",
          "type": "address"
        },
        {
          "internalType": "uint256",
          "name": "id",
          "type": "uint256"
        }
      ],
      "name": "balanceOf",
      "outputs": [
        {
          "internalType": "uint256",
          "name": "",
          "type": "uint256"
        }
      ],
      "stateMutability": "view",
      "type": "function"
    },
    {
      "inputs": [
        {
          "internalType": "address[]",
          "name": "accounts",
          "type": "address[]"
        },
        {
          "internalType": "uint256[]",
          "name": "ids",
          "type": "uint256[]"
        }
      ],
      "name": "balanceOfBatch",
      "outputs": [
        {
          "internalType": "uint256[]",
          "name": "",
          "type": "uint256[]"
        }
      ],
      "stateMutability": "view",
      "type": "function"
    },
    {
      "inputs": [
        {
          "internalType": "uint256",
          "name": "",
          "type": "uint256"
        }
      ],
      "name": "collections",
      "outputs": [
        {
          "internalType": "uint256",
          "name": "maxSupply",
          "type": "uint256"
        },
        {
          "internalType": "uint256",
          "name": "totalMinted",
          "type": "uint256"
        }
      ],
      "stateMutability": "view",
      "type": "function"
    },
    {
      "inputs": [
        {
          "internalType": "uint256",
          "name": "id",
          "type": "uint256"
        },
        {
          "internalType": "uint256",
          "name": "maxSupply",
          "type": "uint256"
        }
      ],
      "name": "createCollection",
      "outputs": [],
      "stateMutability": "nonpayable",
      "type": "function"
    },
    {
      "inputs": [
        {
          "internalType": "string",
          "name": "destinationChain",
          "type": "string"
        },
        {
          "internalType": "address",
          "name": "destinationAddress",
          "type": "address"
        },
        {
          "internalType": "uint256",
          "name": "id",
          "type": "uint256"
        },
        {
          "internalType": "uint256",
          "name": "amount",
          "type": "uint256"
        },
        {
          "internalType": "bytes",
          "name": "data",
          "type": "bytes"
        }
      ],
      "name": "crossChainTransfer",
      "outputs": [],
      "stateMutability": "payable",
      "type": "function"
    },
    {
      "inputs": [
        {
          "internalType": "bytes32",
          "name": "commandId",
          "type": "bytes32"
        },
        {
          "internalType": "string",
          "name": "sourceChain",
          "type": "string"
        },
        {
          "internalType": "string",
          "name": "sourceAddress",
          "type": "string"
        },
        {
          "internalType": "bytes",
          "name": "payload",
          "type": "bytes"
        }
      ],
      "name": "execute",
      "outputs": [],
      "stateMutability": "nonpayable",
      "type": "function"
    },
    {
      "inputs": [
        {
          "internalType": "bytes32",
          "name": "commandId",
          "type": "bytes32"
        },
        {
          "internalType": "string",
          "name": "sourceChain",
          "type": "string"
        },
        {
          "internalType": "string",
          "name": "sourceAddress",
          "type": "string"
        },
        {
          "internalType": "bytes",
          "name": "payload",
          "type": "bytes"
        },
        {
          "internalType": "string",
          "name": "tokenSymbol",
          "type": "string"
        },
        {
          "internalType": "uint256",
          "name": "amount",
          "type": "uint256"
        }
      ],
      "name": "executeWithToken",
      "outputs": [],
      "stateMutability": "nonpayable",
      "type": "function"
    },
    {
      "inputs": [
        {
          "internalType": "uint256",
          "name": "id",
          "type": "uint256"
        }
      ],
      "name": "exists",
      "outputs": [
        {
          "internalType": "bool",
          "name": "",
          "type": "bool"
        }
      ],
      "stateMutability": "view",
      "type": "function"
    },
    {
      "inputs": [],
      "name": "gasService",
      "outputs": [
        {
          "internalType": "contract IAxelarGasService",
          "name": "",
          "type": "address"
        }
      ],
      "stateMutability": "view",
      "type": "function"
    },
    {
      "inputs": [],
      "name": "gateway",
      "outputs": [
        {
          "internalType": "contract IAxelarGateway",
          "name": "",
          "type": "address"
        }
      ],
      "stateMutability": "view",
      "type": "function"
    },
    {
      "inputs": [
        {
          "internalType": "address",
          "name": "account",
          "type": "address"
        },
        {
          "internalType": "address",
          "name": "operator",
          "type": "address"
        }
      ],
      "name": "isApprovedForAll",
      "outputs": [
        {
          "internalType": "bool",
          "name": "",
          "type": "bool"
        }
      ],
      "stateMutability": "view",
      "type": "function"
    },
    {
      "inputs": [
        {
          "internalType": "address",
          "name": "account",
          "type": "address"
        },
        {
          "internalType": "uint256",
          "name": "id",
          "type": "uint256"
        },
        {
          "internalType": "uint256",
          "name": "amount",
          "type": "uint256"
        },
        {
          "internalType": "bytes",
          "name": "data",
          "type": "bytes"
        }
      ],
      "name": "mint",
      "outputs": [],
      "stateMutability": "nonpayable",
      "type": "function"
    },
    {
      "inputs": [
        {
          "internalType": "address",
          "name": "to",
          "type": "address"
        },
        {
          "internalType": "uint256[]",
          "name": "ids",
          "type": "uint256[]"
        },
        {
          "internalType": "uint256[]",
          "name": "amounts",
          "type": "uint256[]"
        },
        {
          "internalType": "bytes",
          "name": "data",
          "type": "bytes"
        }
      ],
      "name": "mintBatch",
      "outputs": [],
      "stateMutability": "nonpayable",
      "type": "function"
    },
    {
      "inputs": [],
      "name": "name",
      "outputs": [
        {
          "internalType": "string",
          "name": "",
          "type": "string"
        }
      ],
      "stateMutability": "view",
      "type": "function"
    },
    {
      "inputs": [],
      "name": "owner",
      "outputs": [
        {
          "internalType": "address",
          "name": "",
          "type": "address"
        }
      ],
      "stateMutability": "view",
      "type": "function"
    },
    {
      "inputs": [],
      "name": "renounceOwnership",
      "outputs": [],
      "stateMutability": "nonpayable",
      "type": "function"
    },
    {
      "inputs": [
        {
          "internalType": "address",
          "name": "from",
          "type": "address"
        },
        {
          "internalType": "address",
          "name": "to",
          "type": "address"
        },
        {
          "internalType": "uint256[]",
          "name": "ids",
          "type": "uint256[]"
        },
        {
          "internalType": "uint256[]",
          "name": "values",
          "type": "uint256[]"
        },
        {
          "internalType": "bytes",
          "name": "data",
          "type": "bytes"
        }
      ],
      "name": "safeBatchTransferFrom",
      "outputs": [],
      "stateMutability": "nonpayable",
      "type": "function"
    },
    {
      "inputs": [
        {
          "internalType": "address",
          "name": "from",
          "type": "address"
        },
        {
          "internalType": "address",
          "name": "to",
          "type": "address"
        },
        {
          "internalType": "uint256",
          "name": "id",
          "type": "uint256"
        },
        {
          "internalType": "uint256",
          "name": "value",
          "type": "uint256"
        },
        {
          "internalType": "bytes",
          "name": "data",
          "type": "bytes"
        }
      ],
      "name": "safeTransferFrom",
      "outputs": [],
      "stateMutability": "nonpayable",
      "type": "function"
    },
    {
      "inputs": [
        {
          "internalType": "address",
          "name": "operator",
          "type": "address"
        },
        {
          "internalType": "bool",
          "name": "approved",
          "type": "bool"
        }
      ],
      "name": "setApprovalForAll",
      "outputs": [],
      "stateMutability": "nonpayable",
      "type": "function"
    },
    {
      "inputs": [
        {
          "internalType": "string",
          "name": "chain",
          "type": "string"
        },
        {
          "internalType": "string",
          "name": "remoteAddress",
          "type": "string"
        }
      ],
      "name": "setTrustedRemote",
      "outputs": [],
      "stateMutability": "nonpayable",
      "type": "function"
    },
    {
      "inputs": [
        {
          "internalType": "string",
          "name": "newuri",
          "type": "string"
        }
      ],
      "name": "setURI",
      "outputs": [],
      "stateMutability": "nonpayable",
      "type": "function"
    },
    {
      "inputs": [
        {
          "internalType": "bytes4",
          "name": "interfaceId",
          "type": "bytes4"
        }
      ],
      "name": "supportsInterface",
      "outputs": [
        {
          "internalType": "bool",
          "name": "",
          "type": "bool"
        }
      ],
      "stateMutability": "view",
      "type": "function"
    },
    {
      "inputs": [],
      "name": "symbol",
      "outputs": [
        {
          "internalType": "string",
          "name": "",
          "type": "string"
        }
      ],
      "stateMutability": "view",
      "type": "function"
    },
    {
      "inputs": [],
      "name": "totalSupply",
      "outputs": [
        {
          "internalType": "uint256",
          "name": "",
          "type": "uint256"
        }
      ],
      "stateMutability": "view",
      "type": "function"
    },
    {
      "inputs": [
        {
          "internalType": "uint256",
          "name": "id",
          "type": "uint256"
        }
      ],
      "name": "totalSupply",
      "outputs": [
        {
          "internalType": "uint256",
          "name": "",
          "type": "uint256"
        }
      ],
      "stateMutability": "view",
      "type": "function"
    },
    {
      "inputs": [
        {
          "internalType": "address",
          "name": "newOwner",
          "type": "address"
        }
      ],
      "name": "transferOwnership",
      "outputs": [],
      "stateMutability": "nonpayable",
      "type": "function"
    },
    {
      "inputs": [
        {
          "internalType": "string",
          "name": "",
          "type": "string"
        }
      ],
      "name": "trustedRemotes",
      "outputs": [
        {
          "internalType": "string",
          "name": "",
          "type": "string"
        }
      ],
      "stateMutability": "view",
      "type": "function"
    },
    {
      "inputs": [
        {
          "internalType": "uint256",
          "name": "",
          "type": "uint256"
        }
      ],
      "name": "uri",
      "outputs": [
        {
          "internalType": "string",
          "name": "",
          "type": "string"
        }
      ],
      "stateMutability": "view",
      "type": "function"
    }
  ],
  "transactionHash": "0xccb6ec61be094287554facc4d3fb80252c1f56f9b36bfb55ec694da70a837ac6",
  "args": [
    "Sea of Fortune Ship",
    "SFS",
    "0xE6F4491CA3670984BD0Add553f296B5960c32374",
    "https://ipfs.io/ipfs/QmP4CkvwLGjT8qJqCZzGjkS6bczBfbPLWTXwNsdtbTyCjR/{id}.json",
    "0xC249632c2D40b9001FE907806902f63038B737Ab",
    "0xbE406F0189A0B4cf3A05C286473D23791Dd44Cc6"
  ],
  "numDeployments": 2,
  "solcInputHash": "a045d2e0f732e11ad329d0ce4dd12480",
  "bytecode": "0x60c06040523480156200001157600080fd5b50604051620030113803806200301183398101604081905262000034916200022e565b8184846200004281620000e8565b506001600160a01b0381166200007257604051631e4fbdf760e01b81526000600482015260240160405180910390fd5b6200007d81620000fa565b506001600160a01b038116620000a65760405163e6c4247b60e01b815260040160405180910390fd5b6001600160a01b03166080526006620000c0878262000385565b506007620000cf868262000385565b506001600160a01b031660a05250620004519350505050565b6002620000f6828262000385565b5050565b600380546001600160a01b038381166001600160a01b0319831681179093556040519116919082907f8be0079c531659141344cd1fd0a4f28419497f9722a3daafe3b4186f6b6457e090600090a35050565b634e487b7160e01b600052604160045260246000fd5b600082601f8301126200017457600080fd5b81516001600160401b03808211156200019157620001916200014c565b604051601f8301601f19908116603f01168101908282118183101715620001bc57620001bc6200014c565b81604052838152602092508683858801011115620001d957600080fd5b600091505b83821015620001fd5785820183015181830184015290820190620001de565b600093810190920192909252949350505050565b80516001600160a01b03811681146200022957600080fd5b919050565b60008060008060008060c087890312156200024857600080fd5b86516001600160401b03808211156200026057600080fd5b6200026e8a838b0162000162565b975060208901519150808211156200028557600080fd5b620002938a838b0162000162565b9650620002a360408a0162000211565b95506060890151915080821115620002ba57600080fd5b50620002c989828a0162000162565b935050620002da6080880162000211565b9150620002ea60a0880162000211565b90509295509295509295565b600181811c908216806200030b57607f821691505b6020821081036200032c57634e487b7160e01b600052602260045260246000fd5b50919050565b601f8211156200038057600081815260208120601f850160051c810160208610156200035b5750805b601f850160051c820191505b818110156200037c5782815560010162000367565b5050505b505050565b81516001600160401b03811115620003a157620003a16200014c565b620003b981620003b28454620002f6565b8462000332565b602080601f831160018114620003f15760008415620003d85750858301515b600019600386901b1c1916600185901b1785556200037c565b600085815260208120601f198616915b82811015620004225788860151825594840194600190910190840162000401565b5085821015620004415787850151600019600388901b60f8161c191681555b5050505050600190811b01905550565b60805160a051612b7e620004936000396000818161040401526108830152600081816102940152818161092e01528181610a550152610cf80152612b7e6000f3fe6080604052600436106101b65760003560e01c80634f558e79116100ec578063a22cb4651161008a578063e985e9c511610064578063e985e9c51461051b578063f242432a1461053b578063f2fde38b1461055b578063fdbda0ec1461057b57600080fd5b8063a22cb465146104ae578063bd85b039146104ce578063e2ac67b6146104fb57600080fd5b8063731133e9116100c6578063731133e91461043b5780638da5cb5b1461045b578063920a14a71461047957806395d89b411461049957600080fd5b80634f558e79146103c35780636a22d8cc146103f2578063715018a61461042657600080fd5b806318160ddd116101595780632eb2c2d6116101335780632eb2c2d61461033657806349160658146103565780634e1273f4146103765780634e90b9c0146103a357600080fd5b806318160ddd146102e15780631a98b2e0146102f65780631f7fdffa1461031657600080fd5b806306fdde031161019557806306fdde03146102405780630e89341c14610262578063116191b614610282578063138c51d6146102ce57600080fd5b8062fdd58e146101bb57806301ffc9a7146101ee57806302fe53051461021e575b600080fd5b3480156101c757600080fd5b506101db6101d6366004611be3565b6105c4565b6040519081526020015b60405180910390f35b3480156101fa57600080fd5b5061020e610209366004611c25565b6105ec565b60405190151581526020016101e5565b34801561022a57600080fd5b5061023e610239366004611ce6565b61063c565b005b34801561024c57600080fd5b50610255610650565b6040516101e59190611d7c565b34801561026e57600080fd5b5061025561027d366004611d8f565b6106de565b34801561028e57600080fd5b506102b67f000000000000000000000000000000000000000000000000000000000000000081565b6040516001600160a01b0390911681526020016101e5565b61023e6102dc366004611df0565b610772565b3480156102ed57600080fd5b506005546101db565b34801561030257600080fd5b5061023e610311366004611e87565b610a24565b34801561032257600080fd5b5061023e61033136600461200e565b610b07565b34801561034257600080fd5b5061023e6103513660046120a8565b610c60565b34801561036257600080fd5b5061023e610371366004612155565b610cc7565b34801561038257600080fd5b506103966103913660046121d8565b610daf565b6040516101e591906122d4565b3480156103af57600080fd5b506102556103be366004611ce6565b610e83565b3480156103cf57600080fd5b5061020e6103de366004611d8f565b600090815260046020526040902054151590565b3480156103fe57600080fd5b506102b67f000000000000000000000000000000000000000000000000000000000000000081565b34801561043257600080fd5b5061023e610ea7565b34801561044757600080fd5b5061023e6104563660046122e7565b610ebb565b34801561046757600080fd5b506003546001600160a01b03166102b6565b34801561048557600080fd5b5061023e61049436600461233d565b610fec565b3480156104a557600080fd5b5061025561102a565b3480156104ba57600080fd5b5061023e6104c93660046123b6565b611037565b3480156104da57600080fd5b506101db6104e9366004611d8f565b60009081526004602052604090205490565b34801561050757600080fd5b5061023e6105163660046123ef565b611046565b34801561052757600080fd5b5061020e610536366004612411565b611115565b34801561054757600080fd5b5061023e61055636600461243f565b611143565b34801561056757600080fd5b5061023e6105763660046124a7565b6111a2565b34801561058757600080fd5b506105af610596366004611d8f565b6009602052600090815260409020805460019091015482565b604080519283526020830191909152016101e5565b6000818152602081815260408083206001600160a01b03861684529091529020545b92915050565b60006001600160e01b03198216636cdb3d1360e11b148061061d57506001600160e01b031982166303a24d0760e21b145b806105e657506301ffc9a760e01b6001600160e01b03198316146105e6565b6106446111dd565b61064d8161120a565b50565b6006805461065d906124c4565b80601f0160208091040260200160405190810160405280929190818152602001828054610689906124c4565b80156106d65780601f106106ab576101008083540402835291602001916106d6565b820191906000526020600020905b8154815290600101906020018083116106b957829003601f168201915b505050505081565b6060600280546106ed906124c4565b80601f0160208091040260200160405190810160405280929190818152602001828054610719906124c4565b80156107665780601f1061073b57610100808354040283529160200191610766565b820191906000526020600020905b81548152906001019060200180831161074957829003601f168201915b50505050509050919050565b8261077d33866105c4565b10156107c75760405162461bcd60e51b8152602060048201526014602482015273496e73756666696369656e742062616c616e636560601b60448201526064015b60405180910390fd5b6000600888886040516107db9291906124fe565b908152602001604051809103902080546107f4906124c4565b9050116108435760405162461bcd60e51b815260206004820152601d60248201527f44657374696e6174696f6e20636861696e206e6f74207472757374656400000060448201526064016107be565b61084e338585611216565b60008585858585604051602001610869959493929190612537565b60408051601f198184030181529190529050341561092c577f00000000000000000000000000000000000000000000000000000000000000006001600160a01b0316630c93e3bb34308b8b60088e8e6040516108c69291906124fe565b9081526040519081900360200181206001600160e01b031960e088901b1682526108f994939291899033906004016125ed565b6000604051808303818588803b15801561091257600080fd5b505af1158015610926573d6000803e3d6000fd5b50505050505b7f00000000000000000000000000000000000000000000000000000000000000006001600160a01b0316631c92115f898960088c8c60405161096f9291906124fe565b9081526040519081900360200181206001600160e01b031960e086901b16825261099f939291879060040161264d565b600060405180830381600087803b1580156109b957600080fd5b505af11580156109cd573d6000803e3d6000fd5b50505050336001600160a01b03167fc04f5d48dad6f148ff1b58af0c908482a2257430c4af5e7293ceaae099bd11b08989898989604051610a12959493929190612687565b60405180910390a25050505050505050565b60008585604051610a369291906124fe565b604051908190038120631876eed960e01b825291506001600160a01b037f00000000000000000000000000000000000000000000000000000000000000001690631876eed990610a9a908e908e908e908e908e9089908d908d908d906004016126c1565b6020604051808303816000875af1158015610ab9573d6000803e3d6000fd5b505050506040513d601f19601f82011682018060405250810190610add9190612720565b610afa57604051631403112d60e21b815260040160405180910390fd5b5050505050505050505050565b60005b8351811015610c4d576000848281518110610b2757610b2761273d565b602002602001015190506000848381518110610b4557610b4561273d565b602002602001015190506000600960008481526020019081526020016000209050600081600001541180610b7857508054155b610bc05760405162461bcd60e51b815260206004820152601960248201527810dbdb1b1958dd1a5bdb88191bd95cc81b9bdd08195e1a5cdd603a1b60448201526064016107be565b805415610c1c5780546001820154610bd9908490612769565b1115610c1c5760405162461bcd60e51b815260206004820152601260248201527145786365656473206d617820737570706c7960701b60448201526064016107be565b81816001016000828254610c309190612769565b925050819055505050508080610c459061277c565b915050610b0a565b50610c5a8484848461127e565b50505050565b336001600160a01b0386168114801590610c815750610c7f8682611115565b155b15610cb25760405163711bec9160e11b81526001600160a01b038083166004830152871660248201526044016107be565b610cbf86868686866112b6565b505050505050565b60008282604051610cd99291906124fe565b604051908190038120635f6970c360e01b825291506001600160a01b037f00000000000000000000000000000000000000000000000000000000000000001690635f6970c390610d37908b908b908b908b908b908990600401612795565b6020604051808303816000875af1158015610d56573d6000803e3d6000fd5b505050506040513d601f19601f82011682018060405250810190610d7a9190612720565b610d9757604051631403112d60e21b815260040160405180910390fd5b610da5878787878787611316565b5050505050505050565b60608151835114610de05781518351604051635b05999160e01b8152600481019290925260248201526044016107be565b600083516001600160401b03811115610dfb57610dfb611c49565b604051908082528060200260200182016040528015610e24578160200160208202803683370190505b50905060005b8451811015610e7b57602080820286010151610e4e906020808402870101516105c4565b828281518110610e6057610e6061273d565b6020908102919091010152610e748161277c565b9050610e2a565b509392505050565b80516020818301810180516008825292820191909301209152805461065d906124c4565b610eaf6111dd565b610eb96000611418565b565b60008381526009602052604090208054151580610ed757508054155b610f1f5760405162461bcd60e51b815260206004820152601960248201527810dbdb1b1958dd1a5bdb88191bd95cc81b9bdd08195e1a5cdd603a1b60448201526064016107be565b805415610f7b5780546001820154610f38908590612769565b1115610f7b5760405162461bcd60e51b815260206004820152601260248201527145786365656473206d617820737570706c7960701b60448201526064016107be565b82816001016000828254610f8f9190612769565b90915550610fa190508585858561146a565b846001600160a01b0316847f2d03118aa776f7008445f6ca8490a6782ede2db364d741513555ba656ab1879f85604051610fdd91815260200190565b60405180910390a35050505050565b610ff46111dd565b8181600886866040516110089291906124fe565b90815260200160405180910390209182611023929190612821565b5050505050565b6007805461065d906124c4565b6110423383836114c7565b5050565b61104e6111dd565b600082815260096020526040902054156110aa5760405162461bcd60e51b815260206004820152601960248201527f436f6c6c656374696f6e20616c7265616479206578697374730000000000000060448201526064016107be565b6040805180820182528281526000602080830182815286835260099091529083902091518255516001909101555182907fe4a22739a96ca2221ea243335d25011e9b6a3091179145c4a56d05a949fba894906111099084815260200190565b60405180910390a25050565b6001600160a01b03918216600090815260016020908152604080832093909416825291909152205460ff1690565b336001600160a01b038616811480159061116457506111628682611115565b155b156111955760405163711bec9160e11b81526001600160a01b038083166004830152871660248201526044016107be565b610cbf868686868661155d565b6111aa6111dd565b6001600160a01b0381166111d457604051631e4fbdf760e01b8152600060048201526024016107be565b61064d81611418565b6003546001600160a01b03163314610eb95760405163118cdaa760e01b81523360048201526024016107be565b600261104282826128e0565b6001600160a01b03831661123f57604051626a0d4560e21b8152600060048201526024016107be565b604080516001808252602082018590528183019081526060820184905260a08201909252600060808201818152919291611023918791859085906115eb565b6001600160a01b0384166112a857604051632bfa23e760e11b8152600060048201526024016107be565b610c5a6000858585856115eb565b6001600160a01b0384166112e057604051632bfa23e760e11b8152600060048201526024016107be565b6001600160a01b03851661130957604051626a0d4560e21b8152600060048201526024016107be565b61102385858585856115eb565b600886866040516113289291906124fe565b9081526040519081900360200181206113409161299f565b604051809103902084846040516113589291906124fe565b6040518091039020146113a45760405162461bcd60e51b81526020600482015260146024820152734e6f742061207472757374656420736f7572636560601b60448201526064016107be565b60008080806113b5858701876122e7565b93509350935093506113c98484848461146a565b7f28ec0fb366582e8bb799b234b5890a3cdf5f2f3a88469173f4712ebb2c4f69508a8a8a8a8888886040516114049796959493929190612a15565b60405180910390a150505050505050505050565b600380546001600160a01b038381166001600160a01b0319831681179093556040519116919082907f8be0079c531659141344cd1fd0a4f28419497f9722a3daafe3b4186f6b6457e090600090a35050565b6001600160a01b03841661149457604051632bfa23e760e11b8152600060048201526024016107be565b60408051600180825260208201869052818301908152606082018590526080820190925290610cbf6000878484876115eb565b6001600160a01b0382166114f05760405162ced3e160e81b8152600060048201526024016107be565b6001600160a01b03838116600081815260016020908152604080832094871680845294825291829020805460ff191686151590811790915591519182527f17307eab39ab6107e8899845ad3d59bd9653f200f220920489ca2b5937696c31910160405180910390a3505050565b6001600160a01b03841661158757604051632bfa23e760e11b8152600060048201526024016107be565b6001600160a01b0385166115b057604051626a0d4560e21b8152600060048201526024016107be565b604080516001808252602082018690528183019081526060820185905260808201909252906115e287878484876115eb565b50505050505050565b6115f78585858561163e565b6001600160a01b038416156110235782513390600103611630576020848101519084015161162983898985858961164a565b5050610cbf565b610cbf81878787878761176e565b610c5a84848484611857565b6001600160a01b0384163b15610cbf5760405163f23a6e6160e01b81526001600160a01b0385169063f23a6e619061168e9089908990889088908890600401612a65565b6020604051808303816000875af19250505080156116c9575060408051601f3d908101601f191682019092526116c691810190612a9f565b60015b611732573d8080156116f7576040519150601f19603f3d011682016040523d82523d6000602084013e6116fc565b606091505b50805160000361172a57604051632bfa23e760e11b81526001600160a01b03861660048201526024016107be565b805181602001fd5b6001600160e01b0319811663f23a6e6160e01b146115e257604051632bfa23e760e11b81526001600160a01b03861660048201526024016107be565b6001600160a01b0384163b15610cbf5760405163bc197c8160e01b81526001600160a01b0385169063bc197c81906117b29089908990889088908890600401612abc565b6020604051808303816000875af19250505080156117ed575060408051601f3d908101601f191682019092526117ea91810190612a9f565b60015b61181b573d8080156116f7576040519150601f19603f3d011682016040523d82523d6000602084013e6116fc565b6001600160e01b0319811663bc197c8160e01b146115e257604051632bfa23e760e11b81526001600160a01b03861660048201526024016107be565b611863848484846119b1565b6001600160a01b038416611916576000805b83518110156118fc5760008382815181106118925761189261273d565b6020026020010151905080600460008785815181106118b3576118b361273d565b6020026020010151815260200190815260200160002060008282546118d89190612769565b909155506118e890508184612769565b925050806118f59061277c565b9050611875565b50806005600082825461190f9190612769565b9091555050505b6001600160a01b038316610c5a576000805b83518110156119a05760008382815181106119455761194561273d565b6020026020010151905080600460008785815181106119665761196661273d565b6020026020010151815260200190815260200160002060008282540392505081905550808301925050806119999061277c565b9050611928565b506005805491909103905550505050565b80518251146119e05781518151604051635b05999160e01b8152600481019290925260248201526044016107be565b3360005b8351811015611aef576020818102858101820151908501909101516001600160a01b03881615611a97576000828152602081815260408083206001600160a01b038c16845290915290205481811015611a70576040516303dee4c560e01b81526001600160a01b038a1660048201526024810182905260448101839052606481018490526084016107be565b6000838152602081815260408083206001600160a01b038d16845290915290209082900390555b6001600160a01b03871615611adc576000828152602081815260408083206001600160a01b038b16845290915281208054839290611ad6908490612769565b90915550505b505080611ae89061277c565b90506119e4565b508251600103611b705760208301516000906020840151909150856001600160a01b0316876001600160a01b0316846001600160a01b03167fc3d58168c5ae7397731d063d5bbf3d657854427343f4c083240f7aacaa2d0f628585604051611b61929190918252602082015260400190565b60405180910390a45050611023565b836001600160a01b0316856001600160a01b0316826001600160a01b03167f4a39dc06d4c0dbc64b70af90fd698a233a518aa5d07e595d983b8c0526c8f7fb8686604051611bbf929190612b1a565b60405180910390a45050505050565b6001600160a01b038116811461064d57600080fd5b60008060408385031215611bf657600080fd5b8235611c0181611bce565b946020939093013593505050565b6001600160e01b03198116811461064d57600080fd5b600060208284031215611c3757600080fd5b8135611c4281611c0f565b9392505050565b634e487b7160e01b600052604160045260246000fd5b604051601f8201601f191681016001600160401b0381118282101715611c8757611c87611c49565b604052919050565b60006001600160401b03831115611ca857611ca8611c49565b611cbb601f8401601f1916602001611c5f565b9050828152838383011115611ccf57600080fd5b828260208301376000602084830101529392505050565b600060208284031215611cf857600080fd5b81356001600160401b03811115611d0e57600080fd5b8201601f81018413611d1f57600080fd5b611d2e84823560208401611c8f565b949350505050565b6000815180845260005b81811015611d5c57602081850181015186830182015201611d40565b506000602082860101526020601f19601f83011685010191505092915050565b602081526000611c426020830184611d36565b600060208284031215611da157600080fd5b5035919050565b60008083601f840112611dba57600080fd5b5081356001600160401b03811115611dd157600080fd5b602083019150836020828501011115611de957600080fd5b9250929050565b600080600080600080600060a0888a031215611e0b57600080fd5b87356001600160401b0380821115611e2257600080fd5b611e2e8b838c01611da8565b909950975060208a01359150611e4382611bce565b909550604089013594506060890135935060808901359080821115611e6757600080fd5b50611e748a828b01611da8565b989b979a50959850939692959293505050565b60008060008060008060008060008060c08b8d031215611ea657600080fd5b8a35995060208b01356001600160401b0380821115611ec457600080fd5b611ed08e838f01611da8565b909b50995060408d0135915080821115611ee957600080fd5b611ef58e838f01611da8565b909950975060608d0135915080821115611f0e57600080fd5b611f1a8e838f01611da8565b909750955060808d0135915080821115611f3357600080fd5b50611f408d828e01611da8565b9150809450508092505060a08b013590509295989b9194979a5092959850565b60006001600160401b03821115611f7957611f79611c49565b5060051b60200190565b600082601f830112611f9457600080fd5b81356020611fa9611fa483611f60565b611c5f565b82815260059290921b84018101918181019086841115611fc857600080fd5b8286015b84811015611fe35780358352918301918301611fcc565b509695505050505050565b600082601f830112611fff57600080fd5b611c4283833560208501611c8f565b6000806000806080858703121561202457600080fd5b843561202f81611bce565b935060208501356001600160401b038082111561204b57600080fd5b61205788838901611f83565b9450604087013591508082111561206d57600080fd5b61207988838901611f83565b9350606087013591508082111561208f57600080fd5b5061209c87828801611fee565b91505092959194509250565b600080600080600060a086880312156120c057600080fd5b85356120cb81611bce565b945060208601356120db81611bce565b935060408601356001600160401b03808211156120f757600080fd5b61210389838a01611f83565b9450606088013591508082111561211957600080fd5b61212589838a01611f83565b9350608088013591508082111561213b57600080fd5b5061214888828901611fee565b9150509295509295909350565b60008060008060008060006080888a03121561217057600080fd5b8735965060208801356001600160401b038082111561218e57600080fd5b61219a8b838c01611da8565b909850965060408a01359150808211156121b357600080fd5b6121bf8b838c01611da8565b909650945060608a0135915080821115611e6757600080fd5b600080604083850312156121eb57600080fd5b82356001600160401b038082111561220257600080fd5b818501915085601f83011261221657600080fd5b81356020612226611fa483611f60565b82815260059290921b8401810191818101908984111561224557600080fd5b948201945b8386101561226c57853561225d81611bce565b8252948201949082019061224a565b9650508601359250508082111561228257600080fd5b5061228f85828601611f83565b9150509250929050565b600081518084526020808501945080840160005b838110156122c9578151875295820195908201906001016122ad565b509495945050505050565b602081526000611c426020830184612299565b600080600080608085870312156122fd57600080fd5b843561230881611bce565b9350602085013592506040850135915060608501356001600160401b0381111561233157600080fd5b61209c87828801611fee565b6000806000806040858703121561235357600080fd5b84356001600160401b038082111561236a57600080fd5b61237688838901611da8565b9096509450602087013591508082111561238f57600080fd5b5061239c87828801611da8565b95989497509550505050565b801515811461064d57600080fd5b600080604083850312156123c957600080fd5b82356123d481611bce565b915060208301356123e4816123a8565b809150509250929050565b6000806040838503121561240257600080fd5b50508035926020909101359150565b6000806040838503121561242457600080fd5b823561242f81611bce565b915060208301356123e481611bce565b600080600080600060a0868803121561245757600080fd5b853561246281611bce565b9450602086013561247281611bce565b9350604086013592506060860135915060808601356001600160401b0381111561249b57600080fd5b61214888828901611fee565b6000602082840312156124b957600080fd5b8135611c4281611bce565b600181811c908216806124d857607f821691505b6020821081036124f857634e487b7160e01b600052602260045260246000fd5b50919050565b8183823760009101908152919050565b81835281816020850137506000828201602090810191909152601f909101601f19169091010190565b60018060a01b038616815284602082015283604082015260806060820152600061256560808301848661250e565b979650505050505050565b6000815461257d816124c4565b80855260206001838116801561259a57600181146125b4576125e2565b60ff1985168884015283151560051b8801830195506125e2565b866000528260002060005b858110156125da5781548a82018601529083019084016125bf565b890184019650505b505050505092915050565b600060018060a01b03808916835260a0602084015261261060a08401888a61250e565b83810360408501526126228188612570565b905083810360608501526126368187611d36565b925050808416608084015250979650505050505050565b60608152600061266160608301868861250e565b82810360208401526126738186612570565b905082810360408401526125658185611d36565b60808152600061269b60808301878961250e565b6001600160a01b0395909516602083015250604081019290925260609091015292915050565b89815260c0602082015260006126db60c083018a8c61250e565b82810360408401526126ee81898b61250e565b9050866060840152828103608084015261270981868861250e565b9150508260a08301529a9950505050505050505050565b60006020828403121561273257600080fd5b8151611c42816123a8565b634e487b7160e01b600052603260045260246000fd5b634e487b7160e01b600052601160045260246000fd5b808201808211156105e6576105e6612753565b60006001820161278e5761278e612753565b5060010190565b8681526080602082015260006127af60808301878961250e565b82810360408401526127c281868861250e565b915050826060830152979650505050505050565b601f82111561281c57600081815260208120601f850160051c810160208610156127fd5750805b601f850160051c820191505b81811015610cbf57828155600101612809565b505050565b6001600160401b0383111561283857612838611c49565b61284c8361284683546124c4565b836127d6565b6000601f84116001811461288057600085156128685750838201355b600019600387901b1c1916600186901b178355611023565b600083815260209020601f19861690835b828110156128b15786850135825560209485019460019092019101612891565b50868210156128ce5760001960f88860031b161c19848701351681555b505060018560011b0183555050505050565b81516001600160401b038111156128f9576128f9611c49565b61290d8161290784546124c4565b846127d6565b602080601f831160018114612942576000841561292a5750858301515b600019600386901b1c1916600185901b178555610cbf565b600085815260208120601f198616915b8281101561297157888601518255948401946001909101908401612952565b508582101561298f5787850151600019600388901b60f8161c191681555b5050505050600190811b01905550565b60008083546129ad816124c4565b600182811680156129c557600181146129da57612a09565b60ff1984168752821515830287019450612a09565b8760005260208060002060005b85811015612a005781548a8201529084019082016129e7565b50505082870194505b50929695505050505050565b60a081526000612a2960a08301898b61250e565b8281036020840152612a3c81888a61250e565b6001600160a01b0396909616604084015250506060810192909252608090910152949350505050565b6001600160a01b03868116825285166020820152604081018490526060810183905260a06080820181905260009061256590830184611d36565b600060208284031215612ab157600080fd5b8151611c4281611c0f565b6001600160a01b0386811682528516602082015260a060408201819052600090612ae890830186612299565b8281036060840152612afa8186612299565b90508281036080840152612b0e8185611d36565b98975050505050505050565b604081526000612b2d6040830185612299565b8281036020840152612b3f8185612299565b9594505050505056fea2646970667358221220b4d8e3811a8d7487b7894df9f713c3aeddc9f9d0eed8c3d3ddebb19037a2bf6064736f6c63430008140033",
  "devdoc": {
    "errors": {
      "ERC1155InsufficientBalance(address,uint256,uint256,uint256)": [
        {
          "details": "Indicates an error related to the current `balance` of a `sender`. Used in transfers.",
          "params": {
            "balance": "Current balance for the interacting account.",
            "needed": "Minimum amount required to perform a transfer.",
            "sender": "Address whose tokens are being transferred.",
            "tokenId": "Identifier number of a token."
          }
        }
      ],
      "ERC1155InvalidApprover(address)": [
        {
          "details": "Indicates a failure with the `approver` of a token to be approved. Used in approvals.",
          "params": {
            "approver": "Address initiating an approval operation."
          }
        }
      ],
      "ERC1155InvalidArrayLength(uint256,uint256)": [
        {
          "details": "Indicates an array length mismatch between ids and values in a safeBatchTransferFrom operation. Used in batch transfers.",
          "params": {
            "idsLength": "Length of the array of token identifiers",
            "valuesLength": "Length of the array of token amounts"
          }
        }
      ],
      "ERC1155InvalidOperator(address)": [
        {
          "details": "Indicates a failure with the `operator` to be approved. Used in approvals.",
          "params": {
            "operator": "Address that may be allowed to operate on tokens without being their owner."
          }
        }
      ],
      "ERC1155InvalidReceiver(address)": [
        {
          "details": "Indicates a failure with the token `receiver`. Used in transfers.",
          "params": {
            "receiver": "Address to which tokens are being transferred."
          }
        }
      ],
      "ERC1155InvalidSender(address)": [
        {
          "details": "Indicates a failure with the token `sender`. Used in transfers.",
          "params": {
            "sender": "Address whose tokens are being transferred."
          }
        }
      ],
      "ERC1155MissingApprovalForAll(address,address)": [
        {
          "details": "Indicates a failure with the `operator`s approval. Used in transfers.",
          "params": {
            "operator": "Address that may be allowed to operate on tokens without being their owner.",
            "owner": "Address of the current owner of a token."
          }
        }
      ],
      "OwnableInvalidOwner(address)": [
        {
          "details": "The owner is not a valid owner account. (eg. `address(0)`)"
        }
      ],
      "OwnableUnauthorizedAccount(address)": [
        {
          "details": "The caller account is not authorized to perform an operation."
        }
      ]
    },
    "events": {
      "ApprovalForAll(address,address,bool)": {
        "details": "Emitted when `account` grants or revokes permission to `operator` to transfer their tokens, according to `approved`."
      },
      "TransferBatch(address,address,address,uint256[],uint256[])": {
        "details": "Equivalent to multiple {TransferSingle} events, where `operator`, `from` and `to` are the same for all transfers."
      },
      "TransferSingle(address,address,address,uint256,uint256)": {
        "details": "Emitted when `value` amount of tokens of type `id` are transferred from `from` to `to` by `operator`."
      },
      "URI(string,uint256)": {
        "details": "Emitted when the URI for token type `id` changes to `value`, if it is a non-programmatic URI. If an {URI} event was emitted for `id`, the standard https://eips.ethereum.org/EIPS/eip-1155#metadata-extensions[guarantees] that `value` will equal the value returned by {IERC1155MetadataURI-uri}."
      }
    },
    "kind": "dev",
    "methods": {
      "balanceOf(address,uint256)": {
        "details": "See {IERC1155-balanceOf}."
      },
      "balanceOfBatch(address[],uint256[])": {
        "details": "See {IERC1155-balanceOfBatch}. Requirements: - `accounts` and `ids` must have the same length."
      },
      "exists(uint256)": {
        "details": "Indicates whether any token exist with a given id, or not."
      },
      "isApprovedForAll(address,address)": {
        "details": "See {IERC1155-isApprovedForAll}."
      },
      "owner()": {
        "details": "Returns the address of the current owner."
      },
      "renounceOwnership()": {
        "details": "Leaves the contract without owner. It will not be possible to call `onlyOwner` functions. Can only be called by the current owner. NOTE: Renouncing ownership will leave the contract without an owner, thereby disabling any functionality that is only available to the owner."
      },
      "safeBatchTransferFrom(address,address,uint256[],uint256[],bytes)": {
        "details": "See {IERC1155-safeBatchTransferFrom}."
      },
      "safeTransferFrom(address,address,uint256,uint256,bytes)": {
        "details": "See {IERC1155-safeTransferFrom}."
      },
      "setApprovalForAll(address,bool)": {
        "details": "See {IERC1155-setApprovalForAll}."
      },
      "supportsInterface(bytes4)": {
        "details": "See {IERC165-supportsInterface}."
      },
      "totalSupply()": {
        "details": "Total value of tokens."
      },
      "totalSupply(uint256)": {
        "details": "Total value of tokens in with a given id."
      },
      "transferOwnership(address)": {
        "details": "Transfers ownership of the contract to a new account (`newOwner`). Can only be called by the current owner."
      },
      "uri(uint256)": {
        "details": "See {IERC1155MetadataURI-uri}. This implementation returns the same URI for *all* token types. It relies on the token type ID substitution mechanism https://eips.ethereum.org/EIPS/eip-1155#metadata[defined in the EIP]. Clients calling this function must replace the `\\{id\\}` substring with the actual token type ID."
      }
    },
    "version": 1
  },
  "userdoc": {
    "kind": "user",
    "methods": {},
    "version": 1
  },
  "storageLayout": {
    "storage": [
      {
        "astId": 1569,
        "contract": "contracts/CrossChainNFTCollection.sol:CrossChainNFTCollection",
        "label": "_balances",
        "offset": 0,
        "slot": "0",
        "type": "t_mapping(t_uint256,t_mapping(t_address,t_uint256))"
      },
      {
        "astId": 1575,
        "contract": "contracts/CrossChainNFTCollection.sol:CrossChainNFTCollection",
        "label": "_operatorApprovals",
        "offset": 0,
        "slot": "1",
        "type": "t_mapping(t_address,t_mapping(t_address,t_bool))"
      },
      {
        "astId": 1577,
        "contract": "contracts/CrossChainNFTCollection.sol:CrossChainNFTCollection",
        "label": "_uri",
        "offset": 0,
        "slot": "2",
        "type": "t_string_storage"
      },
      {
        "astId": 1226,
        "contract": "contracts/CrossChainNFTCollection.sol:CrossChainNFTCollection",
        "label": "_owner",
        "offset": 0,
        "slot": "3",
        "type": "t_address"
      },
      {
        "astId": 2754,
        "contract": "contracts/CrossChainNFTCollection.sol:CrossChainNFTCollection",
        "label": "_totalSupply",
        "offset": 0,
        "slot": "4",
        "type": "t_mapping(t_uint256,t_uint256)"
      },
      {
        "astId": 2756,
        "contract": "contracts/CrossChainNFTCollection.sol:CrossChainNFTCollection",
        "label": "_totalSupplyAll",
        "offset": 0,
        "slot": "5",
        "type": "t_uint256"
      },
      {
        "astId": 6512,
        "contract": "contracts/CrossChainNFTCollection.sol:CrossChainNFTCollection",
        "label": "name",
        "offset": 0,
        "slot": "6",
        "type": "t_string_storage"
      },
      {
        "astId": 6514,
        "contract": "contracts/CrossChainNFTCollection.sol:CrossChainNFTCollection",
        "label": "symbol",
        "offset": 0,
        "slot": "7",
        "type": "t_string_storage"
      },
      {
        "astId": 6521,
        "contract": "contracts/CrossChainNFTCollection.sol:CrossChainNFTCollection",
        "label": "trustedRemotes",
        "offset": 0,
        "slot": "8",
        "type": "t_mapping(t_string_memory_ptr,t_string_storage)"
      },
      {
        "astId": 6531,
        "contract": "contracts/CrossChainNFTCollection.sol:CrossChainNFTCollection",
        "label": "collections",
        "offset": 0,
        "slot": "9",
        "type": "t_mapping(t_uint256,t_struct(Collection)6526_storage)"
      }
    ],
    "types": {
      "t_address": {
        "encoding": "inplace",
        "label": "address",
        "numberOfBytes": "20"
      },
      "t_bool": {
        "encoding": "inplace",
        "label": "bool",
        "numberOfBytes": "1"
      },
      "t_mapping(t_address,t_bool)": {
        "encoding": "mapping",
        "key": "t_address",
        "label": "mapping(address => bool)",
        "numberOfBytes": "32",
        "value": "t_bool"
      },
      "t_mapping(t_address,t_mapping(t_address,t_bool))": {
        "encoding": "mapping",
        "key": "t_address",
        "label": "mapping(address => mapping(address => bool))",
        "numberOfBytes": "32",
        "value": "t_mapping(t_address,t_bool)"
      },
      "t_mapping(t_address,t_uint256)": {
        "encoding": "mapping",
        "key": "t_address",
        "label": "mapping(address => uint256)",
        "numberOfBytes": "32",
        "value": "t_uint256"
      },
      "t_mapping(t_string_memory_ptr,t_string_storage)": {
        "encoding": "mapping",
        "key": "t_string_memory_ptr",
        "label": "mapping(string => string)",
        "numberOfBytes": "32",
        "value": "t_string_storage"
      },
      "t_mapping(t_uint256,t_mapping(t_address,t_uint256))": {
        "encoding": "mapping",
        "key": "t_uint256",
        "label": "mapping(uint256 => mapping(address => uint256))",
        "numberOfBytes": "32",
        "value": "t_mapping(t_address,t_uint256)"
      },
      "t_mapping(t_uint256,t_struct(Collection)6526_storage)": {
        "encoding": "mapping",
        "key": "t_uint256",
        "label": "mapping(uint256 => struct CrossChainNFTCollection.Collection)",
        "numberOfBytes": "32",
        "value": "t_struct(Collection)6526_storage"
      },
      "t_mapping(t_uint256,t_uint256)": {
        "encoding": "mapping",
        "key": "t_uint256",
        "label": "mapping(uint256 => uint256)",
        "numberOfBytes": "32",
        "value": "t_uint256"
      },
      "t_string_memory_ptr": {
        "encoding": "bytes",
        "label": "string",
        "numberOfBytes": "32"
      },
      "t_string_storage": {
        "encoding": "bytes",
        "label": "string",
        "numberOfBytes": "32"
      },
      "t_struct(Collection)6526_storage": {
        "encoding": "inplace",
        "label": "struct CrossChainNFTCollection.Collection",
        "members": [
          {
            "astId": 6523,
            "contract": "contracts/CrossChainNFTCollection.sol:CrossChainNFTCollection",
            "label": "maxSupply",
            "offset": 0,
            "slot": "0",
            "type": "t_uint256"
          },
          {
            "astId": 6525,
            "contract": "contracts/CrossChainNFTCollection.sol:CrossChainNFTCollection",
            "label": "totalMinted",
            "offset": 0,
            "slot": "1",
            "type": "t_uint256"
          }
        ],
        "numberOfBytes": "64"
      },
      "t_uint256": {
        "encoding": "inplace",
        "label": "uint256",
        "numberOfBytes": "32"
      }
    }
  }
}