{
  "address": "0xfBF720f071D09CeE955A3CD0FE97f81F9b744526",
  "abi": [
    {
      "inputs": [
        {
          "internalType": "address",
          "name": "_tokenAddress",
          "type": "address"
        },
        {
          "internalType": "address",
          "name": "_communityWallet",
          "type": "address"
        },
        {
          "internalType": "uint256",
          "name": "_feePercentage",
          "type": "uint256"
        },
        {
          "internalType": "uint256",
          "name": "_mapOwnerPercentage",
          "type": "uint256"
        },
        {
          "internalType": "uint256",
          "name": "_communityPercentage",
          "type": "uint256"
        },
        {
          "internalType": "uint256",
          "name": "_pointsPercentage",
          "type": "uint256"
        },
        {
          "internalType": "uint256",
          "name": "_winnerPercentage",
          "type": "uint256"
        },
        {
          "internalType": "address",
          "name": "gateway",
          "type": "address"
        },
        {
          "internalType": "address",
          "name": "gasServiceAddress",
          "type": "address"
        }
      ],
      "stateMutability": "nonpayable",
      "type": "constructor"
    },
    {
      "inputs": [],
      "name": "InvalidAddress",
      "type": "error"
    },
    {
      "inputs": [],
      "name": "NotApprovedByGateway",
      "type": "error"
    },
    {
      "anonymous": false,
      "inputs": [
        {
          "indexed": false,
          "internalType": "uint256",
          "name": "roomId",
          "type": "uint256"
        },
        {
          "indexed": false,
          "internalType": "address",
          "name": "winner",
          "type": "address"
        },
        {
          "indexed": false,
          "internalType": "string",
          "name": "destinationChain",
          "type": "string"
        },
        {
          "indexed": false,
          "internalType": "address",
          "name": "destinationAddress",
          "type": "address"
        },
        {
          "indexed": false,
          "internalType": "uint256",
          "name": "amount",
          "type": "uint256"
        }
      ],
      "name": "CrossChainWithdrawalInitiated",
      "type": "event"
    },
    {
      "anonymous": false,
      "inputs": [
        {
          "indexed": false,
          "internalType": "uint256",
          "name": "roomId",
          "type": "uint256"
        },
        {
          "indexed": false,
          "internalType": "address",
          "name": "player",
          "type": "address"
        }
      ],
      "name": "PlayerJoined",
      "type": "event"
    },
    {
      "anonymous": false,
      "inputs": [
        {
          "indexed": false,
          "internalType": "uint256",
          "name": "roomId",
          "type": "uint256"
        },
        {
          "indexed": false,
          "internalType": "uint256",
          "name": "betAmount",
          "type": "uint256"
        }
      ],
      "name": "RoomCreated",
      "type": "event"
    },
    {
      "anonymous": false,
      "inputs": [
        {
          "indexed": false,
          "internalType": "uint256",
          "name": "roomId",
          "type": "uint256"
        },
        {
          "indexed": false,
          "internalType": "address",
          "name": "winner",
          "type": "address"
        }
      ],
      "name": "WinnerDeclared",
      "type": "event"
    },
    {
      "anonymous": false,
      "inputs": [
        {
          "indexed": false,
          "internalType": "uint256",
          "name": "roomId",
          "type": "uint256"
        },
        {
          "indexed": false,
          "internalType": "address",
          "name": "winner",
          "type": "address"
        },
        {
          "indexed": false,
          "internalType": "uint256",
          "name": "amountWon",
          "type": "uint256"
        },
        {
          "indexed": false,
          "internalType": "uint256",
          "name": "pointsAmount",
          "type": "uint256"
        },
        {
          "indexed": false,
          "internalType": "uint256",
          "name": "communityFee",
          "type": "uint256"
        },
        {
          "indexed": false,
          "internalType": "uint256",
          "name": "mapOwnerFee",
          "type": "uint256"
        }
      ],
      "name": "WinningsWithdrawn",
      "type": "event"
    },
    {
      "inputs": [
        {
          "internalType": "address",
          "name": "_newWallet",
          "type": "address"
        }
      ],
      "name": "changeCommunityWallet",
      "outputs": [],
      "stateMutability": "nonpayable",
      "type": "function"
    },
    {
      "inputs": [],
      "name": "communityPercentage",
      "outputs": [
        {
          "internalType": "uint256",
          "name": "",
          "type": "uint256"
        }
      ],
      "stateMutability": "view",
      "type": "function"
    },
    {
      "inputs": [],
      "name": "communityWallet",
      "outputs": [
        {
          "internalType": "address",
          "name": "",
          "type": "address"
        }
      ],
      "stateMutability": "view",
      "type": "function"
    },
    {
      "inputs": [
        {
          "internalType": "uint256",
          "name": "_roomId",
          "type": "uint256"
        },
        {
          "internalType": "address",
          "name": "_winner",
          "type": "address"
        }
      ],
      "name": "declareWinner",
      "outputs": [],
      "stateMutability": "nonpayable",
      "type": "function"
    },
    {
      "inputs": [
        {
          "internalType": "bytes32",
          "name": "commandId",
          "type": "bytes32"
        },
        {
          "internalType": "string",
          "name": "sourceChain",
          "type": "string"
        },
        {
          "internalType": "string",
          "name": "sourceAddress",
          "type": "string"
        },
        {
          "internalType": "bytes",
          "name": "payload",
          "type": "bytes"
        }
      ],
      "name": "execute",
      "outputs": [],
      "stateMutability": "nonpayable",
      "type": "function"
    },
    {
      "inputs": [
        {
          "internalType": "bytes32",
          "name": "commandId",
          "type": "bytes32"
        },
        {
          "internalType": "string",
          "name": "sourceChain",
          "type": "string"
        },
        {
          "internalType": "string",
          "name": "sourceAddress",
          "type": "string"
        },
        {
          "internalType": "bytes",
          "name": "payload",
          "type": "bytes"
        },
        {
          "internalType": "string",
          "name": "tokenSymbol",
          "type": "string"
        },
        {
          "internalType": "uint256",
          "name": "amount",
          "type": "uint256"
        }
      ],
      "name": "executeWithToken",
      "outputs": [],
      "stateMutability": "nonpayable",
      "type": "function"
    },
    {
      "inputs": [],
      "name": "feePercentage",
      "outputs": [
        {
          "internalType": "uint256",
          "name": "",
          "type": "uint256"
        }
      ],
      "stateMutability": "view",
      "type": "function"
    },
    {
      "inputs": [],
      "name": "gasService",
      "outputs": [
        {
          "internalType": "contract IAxelarGasService",
          "name": "",
          "type": "address"
        }
      ],
      "stateMutability": "view",
      "type": "function"
    },
    {
      "inputs": [],
      "name": "gateway",
      "outputs": [
        {
          "internalType": "contract IAxelarGateway",
          "name": "",
          "type": "address"
        }
      ],
      "stateMutability": "view",
      "type": "function"
    },
    {
      "inputs": [
        {
          "internalType": "uint256",
          "name": "_roomId",
          "type": "uint256"
        }
      ],
      "name": "joinRoom",
      "outputs": [],
      "stateMutability": "nonpayable",
      "type": "function"
    },
    {
      "inputs": [],
      "name": "mapOwnerPercentage",
      "outputs": [
        {
          "internalType": "uint256",
          "name": "",
          "type": "uint256"
        }
      ],
      "stateMutability": "view",
      "type": "function"
    },
    {
      "inputs": [],
      "name": "owner",
      "outputs": [
        {
          "internalType": "address",
          "name": "",
          "type": "address"
        }
      ],
      "stateMutability": "view",
      "type": "function"
    },
    {
      "inputs": [],
      "name": "pointsPercentage",
      "outputs": [
        {
          "internalType": "uint256",
          "name": "",
          "type": "uint256"
        }
      ],
      "stateMutability": "view",
      "type": "function"
    },
    {
      "inputs": [
        {
          "internalType": "uint256",
          "name": "_betAmount",
          "type": "uint256"
        },
        {
          "internalType": "address",
          "name": "_mapOwner",
          "type": "address"
        }
      ],
      "name": "registerRoom",
      "outputs": [
        {
          "internalType": "uint256",
          "name": "",
          "type": "uint256"
        }
      ],
      "stateMutability": "nonpayable",
      "type": "function"
    },
    {
      "inputs": [
        {
          "internalType": "uint256",
          "name": "_roomId",
          "type": "uint256"
        },
        {
          "internalType": "address",
          "name": "_player",
          "type": "address"
        }
      ],
      "name": "registerTowerDestruction",
      "outputs": [],
      "stateMutability": "nonpayable",
      "type": "function"
    },
    {
      "inputs": [],
      "name": "roomCounter",
      "outputs": [
        {
          "internalType": "uint256",
          "name": "",
          "type": "uint256"
        }
      ],
      "stateMutability": "view",
      "type": "function"
    },
    {
      "inputs": [
        {
          "internalType": "uint256",
          "name": "",
          "type": "uint256"
        }
      ],
      "name": "rooms",
      "outputs": [
        {
          "components": [
            {
              "internalType": "address",
              "name": "playerAddress",
              "type": "address"
            },
            {
              "internalType": "uint256",
              "name": "points",
              "type": "uint256"
            },
            {
              "internalType": "uint256",
              "name": "towersLeft",
              "type": "uint256"
            }
          ],
          "internalType": "struct SeaFortune.Player",
          "name": "player1",
          "type": "tuple"
        },
        {
          "components": [
            {
              "internalType": "address",
              "name": "playerAddress",
              "type": "address"
            },
            {
              "internalType": "uint256",
              "name": "points",
              "type": "uint256"
            },
            {
              "internalType": "uint256",
              "name": "towersLeft",
              "type": "uint256"
            }
          ],
          "internalType": "struct SeaFortune.Player",
          "name": "player2",
          "type": "tuple"
        },
        {
          "internalType": "uint256",
          "name": "betAmount",
          "type": "uint256"
        },
        {
          "internalType": "bool",
          "name": "isActive",
          "type": "bool"
        },
        {
          "internalType": "address",
          "name": "winner",
          "type": "address"
        },
        {
          "internalType": "bool",
          "name": "betPaid",
          "type": "bool"
        },
        {
          "internalType": "address",
          "name": "mapOwner",
          "type": "address"
        }
      ],
      "stateMutability": "view",
      "type": "function"
    },
    {
      "inputs": [
        {
          "internalType": "string",
          "name": "chain",
          "type": "string"
        },
        {
          "internalType": "string",
          "name": "remoteAddress",
          "type": "string"
        }
      ],
      "name": "setTrustedRemote",
      "outputs": [],
      "stateMutability": "nonpayable",
      "type": "function"
    },
    {
      "inputs": [],
      "name": "token",
      "outputs": [
        {
          "internalType": "contract IERC20",
          "name": "",
          "type": "address"
        }
      ],
      "stateMutability": "view",
      "type": "function"
    },
    {
      "inputs": [
        {
          "internalType": "string",
          "name": "",
          "type": "string"
        }
      ],
      "name": "trustedRemotes",
      "outputs": [
        {
          "internalType": "string",
          "name": "",
          "type": "string"
        }
      ],
      "stateMutability": "view",
      "type": "function"
    },
    {
      "inputs": [],
      "name": "winnerPercentage",
      "outputs": [
        {
          "internalType": "uint256",
          "name": "",
          "type": "uint256"
        }
      ],
      "stateMutability": "view",
      "type": "function"
    },
    {
      "inputs": [],
      "name": "withdrawOwnerTokens",
      "outputs": [],
      "stateMutability": "nonpayable",
      "type": "function"
    },
    {
      "inputs": [
        {
          "internalType": "uint256",
          "name": "_roomId",
          "type": "uint256"
        }
      ],
      "name": "withdrawWinnings",
      "outputs": [],
      "stateMutability": "nonpayable",
      "type": "function"
    },
    {
      "inputs": [
        {
          "internalType": "uint256",
          "name": "_roomId",
          "type": "uint256"
        },
        {
          "internalType": "string",
          "name": "destinationChain",
          "type": "string"
        },
        {
          "internalType": "address",
          "name": "destinationAddress",
          "type": "address"
        }
      ],
      "name": "withdrawWinningsCrossChain",
      "outputs": [],
      "stateMutability": "payable",
      "type": "function"
    }
  ],
  "transactionHash": "0x89dded74f5c9bd431b9602cd2b7ebf4d883e3b82a5d8efec34adb17d8068bc65",
  "args": [
    "0x734e16F1D41e0AE36D157BeC571FA67A7d8B84Fd",
    "0x97CBFB45b75F7bc7505bb642566cC96F50E67ffE",
    2,
    1,
    2,
    35,
    60,
    "0xC249632c2D40b9001FE907806902f63038B737Ab",
    "0xbE406F0189A0B4cf3A05C286473D23791Dd44Cc6"
  ],
  "numDeployments": 1,
  "solcInputHash": "a045d2e0f732e11ad329d0ce4dd12480",
  "bytecode": "0x60c06040523480156200001157600080fd5b50604051620027fd380380620027fd8339810160408190526200003491620000de565b816001600160a01b0381166200005d5760405163e6c4247b60e01b815260040160405180910390fd5b6001600160a01b0390811660805260008054336001600160a01b031991821617909155600a805482169b83169b909b17909a5560068054909a1698811698909817909855506001949094556002929092556003556004556005551660a0526200016c565b80516001600160a01b0381168114620000d957600080fd5b919050565b60008060008060008060008060006101208a8c031215620000fe57600080fd5b620001098a620000c1565b98506200011960208b01620000c1565b975060408a0151965060608a0151955060808a0151945060a08a0151935060c08a015192506200014c60e08b01620000c1565b91506200015d6101008b01620000c1565b90509295985092959850929598565b60805160a05161264f620001ae600039600081816103a701526111ed01526000818161016201528181610b3b01528181610c1e0152611298015261264f6000f3fe60806040526004361061014b5760003560e01c8063920a14a7116100b6578063c4e4e7df1161006f578063c4e4e7df146104b4578063c7574839146104d4578063c82403d6146104f4578063ccbccbe51461050a578063e374b0971461051f578063fc0c546a1461053f57600080fd5b8063920a14a714610412578063921c45ca146104325780639cfc4b45146104485780639ee28c8a14610468578063a001ecdd1461047e578063a1df30731461049457600080fd5b80634e90b9c0116101085780634e90b9c0146103485780635fb61d4c146103755780636a22d8cc1461039557806382b98f9d146103c9578063891a1b9e146103df5780638da5cb5b146103f257600080fd5b8063116191b61461015057806314794702146101a15780631a98b2e0146101c35780631bae0ac8146101e35780633bcc746f146103045780634916065814610328575b600080fd5b34801561015c57600080fd5b506101847f000000000000000000000000000000000000000000000000000000000000000081565b6040516001600160a01b0390911681526020015b60405180910390f35b3480156101ad57600080fd5b506101c16101bc366004611c3d565b61055f565b005b3480156101cf57600080fd5b506101c16101de366004611c9f565b610b0a565b3480156101ef57600080fd5b506102936101fe366004611c3d565b60086020818152600092835260409283902083516060808201865282546001600160a01b039081168352600184015483860152600284015483880152865191820187526003840154811682526004840154948201949094526005830154958101959095526006820154600783015492909401549094939260ff808416936101008104831693600160a81b909104909116911687565b6040805188516001600160a01b0390811682526020808b015181840152998301518284015288518116606083015298880151608082015296015160a087015260c086019490945291151560e08501528416610100840152151561012083015290911661014082015261016001610198565b34801561031057600080fd5b5061031a60025481565b604051908152602001610198565b34801561033457600080fd5b506101c1610343366004611d79565b610bed565b34801561035457600080fd5b50610368610363366004611e33565b610cd5565b6040516101989190611f2a565b34801561038157600080fd5b5061031a610390366004611f5c565b610d7a565b3480156103a157600080fd5b506101847f000000000000000000000000000000000000000000000000000000000000000081565b3480156103d557600080fd5b5061031a60055481565b6101c16103ed366004611f8c565b610ff5565b3480156103fe57600080fd5b50600054610184906001600160a01b031681565b34801561041e57600080fd5b506101c161042d366004611feb565b611576565b34801561043e57600080fd5b5061031a60095481565b34801561045457600080fd5b506101c1610463366004611c3d565b6115d6565b34801561047457600080fd5b5061031a60045481565b34801561048a57600080fd5b5061031a60015481565b3480156104a057600080fd5b506101c16104af366004612057565b61175a565b3480156104c057600080fd5b506101c16104cf366004611f5c565b6117a6565b3480156104e057600080fd5b50600654610184906001600160a01b031681565b34801561050057600080fd5b5061031a60035481565b34801561051657600080fd5b506101c16118be565b34801561052b57600080fd5b506101c161053a366004611f5c565b6119d4565b34801561054b57600080fd5b50600a54610184906001600160a01b031681565b60008181526008602052604090205481906001600160a01b031633148061059f57506000818152600860205260409020600301546001600160a01b031633145b6105c45760405162461bcd60e51b81526004016105bb90612074565b60405180910390fd5b6000828152600860205260409020600781015461010090046001600160a01b03166106265760405162461bcd60e51b8152602060048201526012602482015271139bc81dda5b9b995c88191958db185c995960721b60448201526064016105bb565b6007810154600160a81b900460ff16156106825760405162461bcd60e51b815260206004820152601a60248201527f57696e6e696e677320616c72656164792077697468647261776e00000000000060448201526064016105bb565b60008160060154600261069591906120c1565b905060006064600554836106a991906120c1565b6106b391906120d8565b905060006064600454846106c791906120c1565b6106d191906120d8565b905060006064600354856106e591906120c1565b6106ef91906120d8565b9050600060646002548661070391906120c1565b61070d91906120d8565b6004870154600188015491925060009161072791906120fa565b600188015461073690866120c1565b61074091906120d8565b9050600061074e828661210d565b600789015490915061010090046001600160a01b031633036107e157600a5460405163a9059cbb60e01b81526001600160a01b039091169063a9059cbb9061079c9033908a90600401612120565b6020604051808303816000875af11580156107bb573d6000803e3d6000fd5b505050506040513d601f19601f820116820180604052508101906107df9190612139565b505b87546001600160a01b0316330361086d57600a5460405163a9059cbb60e01b81526001600160a01b039091169063a9059cbb906108249033908690600401612120565b6020604051808303816000875af1158015610843573d6000803e3d6000fd5b505050506040513d601f19601f820116820180604052508101906108679190612139565b506108f8565b60038801546001600160a01b031633036108f857600a5460405163a9059cbb60e01b81526001600160a01b039091169063a9059cbb906108b39033908590600401612120565b6020604051808303816000875af11580156108d2573d6000803e3d6000fd5b505050506040513d601f19601f820116820180604052508101906108f69190612139565b505b600a5460065460405163a9059cbb60e01b81526001600160a01b039283169263a9059cbb9261092e929116908890600401612120565b6020604051808303816000875af115801561094d573d6000803e3d6000fd5b505050506040513d601f19601f820116820180604052508101906109719190612139565b50600a54600889015460405163a9059cbb60e01b81526001600160a01b039283169263a9059cbb926109aa929116908790600401612120565b6020604051808303816000875af11580156109c9573d6000803e3d6000fd5b505050506040513d601f19601f820116820180604052508101906109ed9190612139565b50600a546000546001546001600160a01b039283169263a9059cbb921690606490610a18908c6120c1565b610a2291906120d8565b6040518363ffffffff1660e01b8152600401610a3f929190612120565b6020604051808303816000875af1158015610a5e573d6000803e3d6000fd5b505050506040513d601f19601f82011682018060405250810190610a829190612139565b50600788018054600160a81b60ff60a81b199091161790819055604080518c81526101009092046001600160a01b031660208301528101879052606081018690526080810185905260a081018490527f613edb29473d2b242c7584b13b372f9edfa966ba77b561d5ad3ef65ba93296339060c00160405180910390a150505050505050505050565b60008585604051610b1c92919061215b565b604051908190038120631876eed960e01b825291506001600160a01b037f00000000000000000000000000000000000000000000000000000000000000001690631876eed990610b80908e908e908e908e908e9089908d908d908d90600401612194565b6020604051808303816000875af1158015610b9f573d6000803e3d6000fd5b505050506040513d601f19601f82011682018060405250810190610bc39190612139565b610be057604051631403112d60e21b815260040160405180910390fd5b5050505050505050505050565b60008282604051610bff92919061215b565b604051908190038120635f6970c360e01b825291506001600160a01b037f00000000000000000000000000000000000000000000000000000000000000001690635f6970c390610c5d908b908b908b908b908b9089906004016121f3565b6020604051808303816000875af1158015610c7c573d6000803e3d6000fd5b505050506040513d601f19601f82011682018060405250810190610ca09190612139565b610cbd57604051631403112d60e21b815260040160405180910390fd5b610ccb878787878787611b27565b5050505050505050565b805160208183018101805160078252928201919093012091528054610cf990612234565b80601f0160208091040260200160405190810160405280929190818152602001828054610d2590612234565b8015610d725780601f10610d4757610100808354040283529160200191610d72565b820191906000526020600020905b815481529060010190602001808311610d5557829003601f168201915b505050505081565b600080546001600160a01b03163314610da55760405162461bcd60e51b81526004016105bb9061226e565b60098054906000610db583612295565b91905055506040518060e00160405280604051806060016040528060006001600160a01b031681526020016000815260200160038152508152602001604051806060016040528060006001600160a01b03168152602001600081526020016003815250815260200184815260200160011515815260200160006001600160a01b03168152602001600015158152602001836001600160a01b031681525060086000600954815260200190815260200160002060008201518160000160008201518160000160006101000a8154816001600160a01b0302191690836001600160a01b031602179055506020820151816001015560408201518160020155505060208201518160030160008201518160000160006101000a8154816001600160a01b0302191690836001600160a01b03160217905550602082015181600101556040820151816002015550506040820151816006015560608201518160070160006101000a81548160ff02191690831515021790555060808201518160070160016101000a8154816001600160a01b0302191690836001600160a01b0316021790555060a08201518160070160156101000a81548160ff02191690831515021790555060c08201518160080160006101000a8154816001600160a01b0302191690836001600160a01b031602179055509050507fce010a20c19ee1b8a42baca23af0187045e22b247e4ba704cc780cf175506d3260095484604051610fe2929190918252602082015260400190565b60405180910390a1506009545b92915050565b60008481526008602052604090205484906001600160a01b031633148061103557506000818152600860205260409020600301546001600160a01b031633145b6110515760405162461bcd60e51b81526004016105bb90612074565b6000858152600860205260409020600781015461010090046001600160a01b03166110b35760405162461bcd60e51b8152602060048201526012602482015271139bc81dda5b9b995c88191958db185c995960721b60448201526064016105bb565b6007810154600160a81b900460ff161561110f5760405162461bcd60e51b815260206004820152601a60248201527f57696e6e696e677320616c72656164792077697468647261776e00000000000060448201526064016105bb565b60006007868660405161112392919061215b565b9081526020016040518091039020805461113c90612234565b90501161118b5760405162461bcd60e51b815260206004820152601d60248201527f44657374696e6174696f6e20636861696e206e6f74207472757374656400000060448201526064016105bb565b60008160060154600261119e91906120c1565b905060006064600554836111b291906120c1565b6111bc91906120d8565b9050600085826040516020016111d3929190612120565b60408051601f1981840301815291905290503415611296577f00000000000000000000000000000000000000000000000000000000000000006001600160a01b0316630c93e3bb34308b8b60078e8e60405161123092919061215b565b9081526040519081900360200181206001600160e01b031960e088901b168252611263949392918990339060040161232b565b6000604051808303818588803b15801561127c57600080fd5b505af1158015611290573d6000803e3d6000fd5b50505050505b7f00000000000000000000000000000000000000000000000000000000000000006001600160a01b0316631c92115f898960078c8c6040516112d992919061215b565b9081526040519081900360200181206001600160e01b031960e086901b168252611309939291879060040161238b565b600060405180830381600087803b15801561132357600080fd5b505af1158015611337573d6000803e3d6000fd5b50505050600060646003548561134d91906120c1565b61135791906120d8565b9050600060646002548661136b91906120c1565b61137591906120d8565b600a5460065460405163a9059cbb60e01b81529293506001600160a01b039182169263a9059cbb926113ad9216908690600401612120565b6020604051808303816000875af11580156113cc573d6000803e3d6000fd5b505050506040513d601f19601f820116820180604052508101906113f09190612139565b50600a54600887015460405163a9059cbb60e01b81526001600160a01b039283169263a9059cbb92611429929116908590600401612120565b6020604051808303816000875af1158015611448573d6000803e3d6000fd5b505050506040513d601f19601f8201168201806040525081019061146c9190612139565b50600a546000546001546001600160a01b039283169263a9059cbb921690606490611497908a6120c1565b6114a191906120d8565b6040518363ffffffff1660e01b81526004016114be929190612120565b6020604051808303816000875af11580156114dd573d6000803e3d6000fd5b505050506040513d601f19601f820116820180604052508101906115019190612139565b5060078601805460ff60a81b1916600160a81b17908190556040517f56054d3f087aecdd949d9ce4266a4d47e4802d41fe9ea2ba8794771e69dc1b1791611561918e916001600160a01b0361010090910416908e908e908e908b906123d0565b60405180910390a15050505050505050505050565b6000546001600160a01b031633146115a05760405162461bcd60e51b81526004016105bb9061226e565b8181600786866040516115b492919061215b565b908152602001604051809103902091826115cf92919061245b565b5050505050565b6000818152600860205260409020600781015460ff166116085760405162461bcd60e51b81526004016105bb9061251b565b80546001600160a01b031661162c5780546001600160a01b0319163317815561169c565b60038101546001600160a01b0316156116875760405162461bcd60e51b815260206004820152601c60248201527f526f6f6d20616c7265616479206861732074776f20706c61796572730000000060448201526064016105bb565b6003810180546001600160a01b031916331790555b600a5460068201546040516323b872dd60e01b815233600482015230602482015260448101919091526001600160a01b03909116906323b872dd906064016020604051808303816000875af11580156116f9573d6000803e3d6000fd5b505050506040513d601f19601f8201168201806040525081019061171d9190612139565b50604080518381523360208201527f87969bc7faf902221a147b95ceba76e011c5efb0339a0a8ee7a2bb82d9cfbbd6910160405180910390a15050565b6000546001600160a01b031633146117845760405162461bcd60e51b81526004016105bb9061226e565b600680546001600160a01b0319166001600160a01b0392909216919091179055565b6000546001600160a01b031633146117d05760405162461bcd60e51b81526004016105bb9061226e565b6000828152600860205260409020600781015460ff166118025760405162461bcd60e51b81526004016105bb9061251b565b80546001600160a01b038381169116148061182c575060038101546001600160a01b038381169116145b6118485760405162461bcd60e51b81526004016105bb90612074565b80546001600160a01b03908116908316036118905760018101805490600061186f83612295565b909155505060058101805490600061188683612547565b9190505550505050565b6004810180549060006118a283612295565b909155505060028101805490600061188683612547565b505050565b6000546001600160a01b031633146118e85760405162461bcd60e51b81526004016105bb9061226e565b600a546040516370a0823160e01b81523060048201526000916001600160a01b0316906370a0823190602401602060405180830381865afa158015611931573d6000803e3d6000fd5b505050506040513d601f19601f82011682018060405250810190611955919061255e565b600a5460005460405163a9059cbb60e01b81529293506001600160a01b039182169263a9059cbb9261198d9216908590600401612120565b6020604051808303816000875af11580156119ac573d6000803e3d6000fd5b505050506040513d601f19601f820116820180604052508101906119d09190612139565b5050565b6000546001600160a01b031633146119fe5760405162461bcd60e51b81526004016105bb9061226e565b6000828152600860205260409020600781015460ff16611a305760405162461bcd60e51b81526004016105bb9061251b565b80546001600160a01b0383811691161480611a5a575060038101546001600160a01b038381169116145b611ab25760405162461bcd60e51b8152602060048201526024808201527f57696e6e6572206d757374206265206120706c6179657220696e207468697320604482015263726f6f6d60e01b60648201526084016105bb565b6007810180546001600160a81b0319166101006001600160a01b03851690810260ff1916919091179091556040805185815260208101929092527f4d3647387a0671b375a6cfb75769ed74ec10d3a37f6d3b392b12926fe9a099d1910160405180910390a1505050565b505050505050505050565b60078686604051611b3992919061215b565b908152604051908190036020018120611b5191612577565b60405180910390208484604051611b6992919061215b565b604051809103902014611bb55760405162461bcd60e51b81526020600482015260146024820152734e6f742061207472757374656420736f7572636560601b60448201526064016105bb565b600080611bc4838501856125ed565b600a5460405163a9059cbb60e01b81529294509092506001600160a01b03169063a9059cbb90611bfa9085908590600401612120565b6020604051808303816000875af1158015611c19573d6000803e3d6000fd5b505050506040513d601f19601f82011682018060405250810190611b1c9190612139565b600060208284031215611c4f57600080fd5b5035919050565b60008083601f840112611c6857600080fd5b50813567ffffffffffffffff811115611c8057600080fd5b602083019150836020828501011115611c9857600080fd5b9250929050565b60008060008060008060008060008060c08b8d031215611cbe57600080fd5b8a35995060208b013567ffffffffffffffff80821115611cdd57600080fd5b611ce98e838f01611c56565b909b50995060408d0135915080821115611d0257600080fd5b611d0e8e838f01611c56565b909950975060608d0135915080821115611d2757600080fd5b611d338e838f01611c56565b909750955060808d0135915080821115611d4c57600080fd5b50611d598d828e01611c56565b9150809450508092505060a08b013590509295989b9194979a5092959850565b60008060008060008060006080888a031215611d9457600080fd5b87359650602088013567ffffffffffffffff80821115611db357600080fd5b611dbf8b838c01611c56565b909850965060408a0135915080821115611dd857600080fd5b611de48b838c01611c56565b909650945060608a0135915080821115611dfd57600080fd5b50611e0a8a828b01611c56565b989b979a50959850939692959293505050565b634e487b7160e01b600052604160045260246000fd5b600060208284031215611e4557600080fd5b813567ffffffffffffffff80821115611e5d57600080fd5b818401915084601f830112611e7157600080fd5b813581811115611e8357611e83611e1d565b604051601f8201601f19908116603f01168101908382118183101715611eab57611eab611e1d565b81604052828152876020848701011115611ec457600080fd5b826020860160208301376000928101602001929092525095945050505050565b6000815180845260005b81811015611f0a57602081850181015186830182015201611eee565b506000602082860101526020601f19601f83011685010191505092915050565b602081526000611f3d6020830184611ee4565b9392505050565b6001600160a01b0381168114611f5957600080fd5b50565b60008060408385031215611f6f57600080fd5b823591506020830135611f8181611f44565b809150509250929050565b60008060008060608587031215611fa257600080fd5b84359350602085013567ffffffffffffffff811115611fc057600080fd5b611fcc87828801611c56565b9094509250506040850135611fe081611f44565b939692955090935050565b6000806000806040858703121561200157600080fd5b843567ffffffffffffffff8082111561201957600080fd5b61202588838901611c56565b9096509450602087013591508082111561203e57600080fd5b5061204b87828801611c56565b95989497509550505050565b60006020828403121561206957600080fd5b8135611f3d81611f44565b60208082526019908201527f4e6f74206120706c6179657220696e207468697320726f6f6d00000000000000604082015260600190565b634e487b7160e01b600052601160045260246000fd5b8082028115828204841417610fef57610fef6120ab565b6000826120f557634e487b7160e01b600052601260045260246000fd5b500490565b80820180821115610fef57610fef6120ab565b81810381811115610fef57610fef6120ab565b6001600160a01b03929092168252602082015260400190565b60006020828403121561214b57600080fd5b81518015158114611f3d57600080fd5b8183823760009101908152919050565b81835281816020850137506000828201602090810191909152601f909101601f19169091010190565b89815260c0602082015260006121ae60c083018a8c61216b565b82810360408401526121c181898b61216b565b905086606084015282810360808401526121dc81868861216b565b9150508260a08301529a9950505050505050505050565b86815260806020820152600061220d60808301878961216b565b828103604084015261222081868861216b565b915050826060830152979650505050505050565b600181811c9082168061224857607f821691505b60208210810361226857634e487b7160e01b600052602260045260246000fd5b50919050565b6020808252600d908201526c2737ba103a34329037bbb732b960991b604082015260600190565b6000600182016122a7576122a76120ab565b5060010190565b600081546122bb81612234565b8085526020600183811680156122d857600181146122f257612320565b60ff1985168884015283151560051b880183019550612320565b866000528260002060005b858110156123185781548a82018601529083019084016122fd565b890184019650505b505050505092915050565b600060018060a01b03808916835260a0602084015261234e60a08401888a61216b565b838103604085015261236081886122ae565b905083810360608501526123748187611ee4565b925050808416608084015250979650505050505050565b60608152600061239f60608301868861216b565b82810360208401526123b181866122ae565b905082810360408401526123c58185611ee4565b979650505050505050565b868152600060018060a01b03808816602084015260a060408401526123f960a08401878961216b565b941660608301525060800152949350505050565b601f8211156118b957600081815260208120601f850160051c810160208610156124345750805b601f850160051c820191505b8181101561245357828155600101612440565b505050505050565b67ffffffffffffffff83111561247357612473611e1d565b612487836124818354612234565b8361240d565b6000601f8411600181146124bb57600085156124a35750838201355b600019600387901b1c1916600186901b1783556115cf565b600083815260209020601f19861690835b828110156124ec57868501358255602094850194600190920191016124cc565b50868210156125095760001960f88860031b161c19848701351681555b505060018560011b0183555050505050565b602080825260129082015271526f6f6d206973206e6f742061637469766560701b604082015260600190565b600081612556576125566120ab565b506000190190565b60006020828403121561257057600080fd5b5051919050565b600080835461258581612234565b6001828116801561259d57600181146125b2576125e1565b60ff19841687528215158302870194506125e1565b8760005260208060002060005b858110156125d85781548a8201529084019082016125bf565b50505082870194505b50929695505050505050565b6000806040838503121561260057600080fd5b823561260b81611f44565b94602093909301359350505056fea264697066735822122089d19db516fccb9da6e08d545bac5e8bf47a03341d4d2ce836e635163918099c64736f6c63430008140033",
  "devdoc": {
    "kind": "dev",
    "methods": {},
    "version": 1
  },
  "userdoc": {
    "kind": "user",
    "methods": {},
    "version": 1
  },
  "storageLayout": {
    "storage": [
      {
        "astId": 7308,
        "contract": "contracts/SeaFortune.sol:SeaFortune",
        "label": "owner",
        "offset": 0,
        "slot": "0",
        "type": "t_address"
      },
      {
        "astId": 7310,
        "contract": "contracts/SeaFortune.sol:SeaFortune",
        "label": "feePercentage",
        "offset": 0,
        "slot": "1",
        "type": "t_uint256"
      },
      {
        "astId": 7312,
        "contract": "contracts/SeaFortune.sol:SeaFortune",
        "label": "mapOwnerPercentage",
        "offset": 0,
        "slot": "2",
        "type": "t_uint256"
      },
      {
        "astId": 7314,
        "contract": "contracts/SeaFortune.sol:SeaFortune",
        "label": "communityPercentage",
        "offset": 0,
        "slot": "3",
        "type": "t_uint256"
      },
      {
        "astId": 7316,
        "contract": "contracts/SeaFortune.sol:SeaFortune",
        "label": "pointsPercentage",
        "offset": 0,
        "slot": "4",
        "type": "t_uint256"
      },
      {
        "astId": 7318,
        "contract": "contracts/SeaFortune.sol:SeaFortune",
        "label": "winnerPercentage",
        "offset": 0,
        "slot": "5",
        "type": "t_uint256"
      },
      {
        "astId": 7320,
        "contract": "contracts/SeaFortune.sol:SeaFortune",
        "label": "communityWallet",
        "offset": 0,
        "slot": "6",
        "type": "t_address"
      },
      {
        "astId": 7327,
        "contract": "contracts/SeaFortune.sol:SeaFortune",
        "label": "trustedRemotes",
        "offset": 0,
        "slot": "7",
        "type": "t_mapping(t_string_memory_ptr,t_string_storage)"
      },
      {
        "astId": 7356,
        "contract": "contracts/SeaFortune.sol:SeaFortune",
        "label": "rooms",
        "offset": 0,
        "slot": "8",
        "type": "t_mapping(t_uint256,t_struct(Room)7351_storage)"
      },
      {
        "astId": 7358,
        "contract": "contracts/SeaFortune.sol:SeaFortune",
        "label": "roomCounter",
        "offset": 0,
        "slot": "9",
        "type": "t_uint256"
      },
      {
        "astId": 7361,
        "contract": "contracts/SeaFortune.sol:SeaFortune",
        "label": "token",
        "offset": 0,
        "slot": "10",
        "type": "t_contract(IERC20)3524"
      }
    ],
    "types": {
      "t_address": {
        "encoding": "inplace",
        "label": "address",
        "numberOfBytes": "20"
      },
      "t_bool": {
        "encoding": "inplace",
        "label": "bool",
        "numberOfBytes": "1"
      },
      "t_contract(IERC20)3524": {
        "encoding": "inplace",
        "label": "contract IERC20",
        "numberOfBytes": "20"
      },
      "t_mapping(t_string_memory_ptr,t_string_storage)": {
        "encoding": "mapping",
        "key": "t_string_memory_ptr",
        "label": "mapping(string => string)",
        "numberOfBytes": "32",
        "value": "t_string_storage"
      },
      "t_mapping(t_uint256,t_struct(Room)7351_storage)": {
        "encoding": "mapping",
        "key": "t_uint256",
        "label": "mapping(uint256 => struct SeaFortune.Room)",
        "numberOfBytes": "32",
        "value": "t_struct(Room)7351_storage"
      },
      "t_string_memory_ptr": {
        "encoding": "bytes",
        "label": "string",
        "numberOfBytes": "32"
      },
      "t_string_storage": {
        "encoding": "bytes",
        "label": "string",
        "numberOfBytes": "32"
      },
      "t_struct(Player)7334_storage": {
        "encoding": "inplace",
        "label": "struct SeaFortune.Player",
        "members": [
          {
            "astId": 7329,
            "contract": "contracts/SeaFortune.sol:SeaFortune",
            "label": "playerAddress",
            "offset": 0,
            "slot": "0",
            "type": "t_address"
          },
          {
            "astId": 7331,
            "contract": "contracts/SeaFortune.sol:SeaFortune",
            "label": "points",
            "offset": 0,
            "slot": "1",
            "type": "t_uint256"
          },
          {
            "astId": 7333,
            "contract": "contracts/SeaFortune.sol:SeaFortune",
            "label": "towersLeft",
            "offset": 0,
            "slot": "2",
            "type": "t_uint256"
          }
        ],
        "numberOfBytes": "96"
      },
      "t_struct(Room)7351_storage": {
        "encoding": "inplace",
        "label": "struct SeaFortune.Room",
        "members": [
          {
            "astId": 7337,
            "contract": "contracts/SeaFortune.sol:SeaFortune",
            "label": "player1",
            "offset": 0,
            "slot": "0",
            "type": "t_struct(Player)7334_storage"
          },
          {
            "astId": 7340,
            "contract": "contracts/SeaFortune.sol:SeaFortune",
            "label": "player2",
            "offset": 0,
            "slot": "3",
            "type": "t_struct(Player)7334_storage"
          },
          {
            "astId": 7342,
            "contract": "contracts/SeaFortune.sol:SeaFortune",
            "label": "betAmount",
            "offset": 0,
            "slot": "6",
            "type": "t_uint256"
          },
          {
            "astId": 7344,
            "contract": "contracts/SeaFortune.sol:SeaFortune",
            "label": "isActive",
            "offset": 0,
            "slot": "7",
            "type": "t_bool"
          },
          {
            "astId": 7346,
            "contract": "contracts/SeaFortune.sol:SeaFortune",
            "label": "winner",
            "offset": 1,
            "slot": "7",
            "type": "t_address"
          },
          {
            "astId": 7348,
            "contract": "contracts/SeaFortune.sol:SeaFortune",
            "label": "betPaid",
            "offset": 21,
            "slot": "7",
            "type": "t_bool"
          },
          {
            "astId": 7350,
            "contract": "contracts/SeaFortune.sol:SeaFortune",
            "label": "mapOwner",
            "offset": 0,
            "slot": "8",
            "type": "t_address"
          }
        ],
        "numberOfBytes": "288"
      },
      "t_uint256": {
        "encoding": "inplace",
        "label": "uint256",
        "numberOfBytes": "32"
      }
    }
  }
}